:020000040800F2
:10000000A00C002035020008872A0008391B0008D0
:10001000852A0008E30400084532000800000000BB
:10002000000000000000000000000000EB2E0008AF
:10003000E504000800000000E92E0008ED2E00088D
:100040004F0200084F0200084F0200084F0200084C
:100050004F0200084F0200084F0200084F0200083C
:100060004F0200084F0200084F0200084F0200082C
:100070004F0200084F0200084F0200084F0200081C
:100080004F0200084F0200084F0200080000000065
:100090000000000000000000000000004F02000807
:1000A0004F0200084F0200084F0200084F020008EC
:1000B0004F0200084F0200084F020008491B0008C9
:1000C0003D1B0008611B0008551B00084F0200087B
:1000D0004F020008393200084F02000800000000FB
:1000E0004F0200084F0200084F0200080000000005
:1000F0000000000000000000000000004F020008A7
:10010000000000004F0200084F0200084F020008E4
:1001100000000000000000000000000000000000DF
:100120004F0200084F0200084F0200084F0200086B
:100130004F02000800000000000000000000000066
:100140000000000000000000000000004F02000856
:100150004F0200084F0200084F0200084F0200083B
:100160004F0200084F0200080000000000000000DD
:10017000000000000000000000000000000000007F
:10018000000000004F020008000000000000000016
:100190004F02000800F002F800F03CF80AA090E8D6
:1001A000000C82448344AAF10107DA4501D100F032
:1001B00031F8AFF2090EBAE80F0013F0010F18BFC3
:1001C000FB1A43F00103184768340000883400002C
:1001D000103A24BF78C878C1FAD8520724BF30C873
:1001E00030C144BF04680C60704700000023002445
:1001F00000250026103A28BF78C1FBD8520728BF37
:1002000030C148BF0B6070471FB503F0EBF81FBD4E
:1002100010B510BD00F02BF91146FFF7F5FF03F004
:100220003DF800F049F903B4FFF7F2FF03BC00F01A
:1002300051F900000948804709480047FEE7FEE7FA
:10024000FEE7FEE7FEE7FEE7FEE7FEE7FEE7FEE786
:1002500004480549054A064B70470000852F0008F1
:1002600095010008A0060020A00C0020A008002096
:10027000A008002053EA020C00F069802DE9F04B41
:100280004FF00006002B1FBFB3FA83F503FA05F405
:1002900024FA05F65E4012BF1643B2FA82F502FA5E
:1002A00005F4C5F120051EBF22FA05FC44EA0C0442
:1002B000203556EA044C4FEA144418BF641C4FF032
:1002C00000084FF00009904271EB030C39D300296C
:1002D00019BFB1FA81F701FA07F6B0FA80F700FA10
:1002E00007F6C7F120071EBF20FA07FC46EA0C06F6
:1002F0002037B6FBF4FCA7EB0507103F07F01F0BF8
:10030000CBF120060CFA0BFB2CFA06F644BFB346E1
:100310000026202FA4BF5E464FF0000B5BEA060CC0
:1003200008BF4FF0010B19EB0B09ABFB027C48EB4C
:100330000608C01B06FB02CC0BFB03CC71EB0C01C7
:10034000C1E70B46024641464846BDE8F08B13B56F
:100350004FF000004FF00001AFF30080BDE81C40FB
:10036000704710B5203AC0F00B80B1E81850203A21
:10037000A0E81850B1E81850A0E81850BFF4F5AF45
:100380005FEA027C24BFB1E81850A0E8185044BFCF
:1003900018C918C0BDE810405FEA827C24BF51F83C
:1003A000043B40F8043B08BF7047D20728BF31F830
:1003B000023B48BF11F8012B28BF20F8023B48BF81
:1003C00000F8012B704702F0FF0343EA032242EAE0
:1003D000024200F002B84FF000020429C0F012807F
:1003E00010F0030C00F01B80CCF1040CBCF1020FE8
:1003F00018BF00F8012BA8BF20F8022BA1EB0C01BD
:1004000000F00DB85FEAC17C24BF00F8012B00F8B2
:10041000012B48BF00F8012B70474FF0000200B5D8
:10042000134694469646203922BFA0E80C50A0E817
:100430000C50B1F12001BFF4F7AF090728BFA0E8C5
:100440000C5048BF0CC05DF804EB890028BF40F891
:10045000042B08BF704748BF20F8022B11F0804FD3
:1004600018BF00F8012B70477047704770477546FA
:1004700000F02CF8AE4605006946534620F0070010
:10048000854618B020B5FFF7E3FEBDE820404FF0E9
:1004900000064FF000074FF000084FF0000B21F06E
:1004A0000701AC46ACE8C009ACE8C009ACE8C0093B
:1004B000ACE8C0098D46704710B50446AFF3008024
:1004C0002046BDE81040FFF7AEBE00000048704770
:1004D0003C06002001491820ABBEFEE726000200C2
:1004E0007047FEE7704772B6FEE72DE9F04104461B
:1004F000876D00F05BF9064694F835000025022868
:1005000006D08020606584F834500120BDE8F08179
:100510002068016821F0160101602068416921F01E
:1005200080014161206C08B9A06C20B1206801688D
:1005300021F0080101602068016821F001010160DB
:100540000CE000F033F9801B052807D920206065F6
:10055000032084F8350084F83450D7E72068006819
:10056000C007EED194F85C103F208840B8600120AD
:1005700084F8350084F834500020C7E790F835102F
:10058000022903D08021416501207047052180F8B0
:1005900035100068016821F00101016000207047FA
:1005A00090F835007047000070B5044600F0FEF882
:1005B0000546601C02D004480078044400F0F6F8B8
:1005C000401BA042FAD370BD000000202DE9F84F77
:1005D000DFF8B8A1002201240AF1040B03254FF033
:1005E0000F090BF1040E00BF0B6804FA02F633404A
:1005F000B34273D10F7907F00307012F01D0022F07
:1006000016D187684FEA420805FA08FC27EA0C076A
:10061000D1F80CC00CFA08FC4CEA070CC0F808C072
:100620004768B7430E79C6F3001696403E434660CE
:100630000E79F643B6070DD0C768560005FA06FCDA
:1006400027EA0C07D1F808C00CFA06FC4CEA070CA4
:10065000C0F80CC00E7906F00306022E10D1D608A1
:1006600000EB8608D8F8206057074FEAD76C09FAE4
:100670000CF7BE430F6907FA0CF73743C8F8207030
:1006800006684FEA420C05FA0CF7BE430F7907F0F3
:10069000030707FA0CF7374307604E6816F4403F2C
:1006A0006DD03B4E376847F480473760366822F09C
:1006B000030706F480460096364E07EB060CDCF87E
:1006C000086897073F0F09FA07F826EA0806DFF8D7
:1006D000C880404503D14FF000081EE04FE0DFF82E
:1006E000BC80404502D14FF0010816E0DFF8B08031
:1006F000404502D14FF002080FE0DFF8A8804045E6
:1007000002D14FF0030808E0DFF89C80404502D199
:100710004FF0040801E04FF0070808FA07F848EA2C
:100720000608CCF80888DAF800605746D1F804C00B
:100730009E435FEACC3C00D51E433E60DBF8006080
:100740005F46D1F804C09E435FEA8C3C00D51E434F
:100750003E60DEF800607746D1F804C09E435FEA51
:10076000CC2C00D51E433E60084F0C373E68D1F8B4
:1007700004C09E435FEA8C2C00D51E433E60521C91
:10078000102AFFF431AFBDE8F88F0000003C0140B3
:1007900044380240003001400000024000040240A2
:1007A00000080240000C024000100240014880682E
:1007B0007047000000000020704770472DE9F041AD
:1007C000016804464A694E6890F83E000025D74308
:1007D000FA0506D4F243D20503D46FF480720125E2
:1007E0004A61B90508D4F143C90505D422686FF4FC
:1007F000007145F002055161790525D4F143C90521
:1008000022D4638D94F83D10226B202808D13BB987
:10081000212910D029290ED0282901D1212A0AD036
:1008200022686FF48061516145F00405102806D0FC
:10083000402804D008E0204601F04CFE04E0206887
:10084000016841F400710160380508D4F043C00527
:1008500005D421686FF4006045F008054861002D5B
:1008600007D0206C284320642046BDE8F04101F009
:10087000DBB9BDE8F0812DE9F0470268002153683B
:10088000C66A90F83E4090F83D50102C12D0402C93
:1008900010D0046C002C7DD05469E443A6077AD4B0
:1008A000DE43B60577D4036C03B19169BDE8F04728
:1008B00001F0ECBD976951694FF42A0CC9435FEA16
:1008C000C1784FF02A4904D066452AD04E4528D039
:1008D00010E0DE43B6050DD4C16A614501D10121A6
:1008E00003E0C16A494501D10821C162BDE8F04772
:1008F00001F064BC0E0716D4DE43B60513D4416C78
:10090000C9B21161416B09B1C96B29B9816B002969
:1009100007D0C96B002904D00068416841F4006128
:100920004160BDE8F0878E0706D4DE43B60503D4E8
:10093000BDE8F04701F0B6BBFE43526876074FEAC8
:1009400002521DD4002AECDB0A0608D4DA43520511
:1009500005D4490705D5BDE8F04701F047BB490775
:10096000DFD4D9438905DCD4212D05D0402CD8D142
:10097000BDE8F04701F068BCBDE8F04701F0F4BA0B
:10098000002ACEDB4A060BD4DA43520508D44907C5
:1009900008D501E00DE00EE0BDE8F04701F070BAC7
:1009A0004907BED4D9438905BBD4BDE8F04701F05F
:1009B000FEB9916970E7E10606D4D943890503D4ED
:1009C000BDE8F04701F0C8BD2821212D27D0292DF1
:1009D00025D0650655D4DD436D0552D4640752D544
:1009E00090F83D30448D002C9BD01269446A2270EF
:1009F000426A521C4262428D521E4285428D002A3A
:100A00008FD12A2B8DD10268536823F48063536001
:100A10002222026380F83D1000F026FB81E72506C4
:100A200023D4DD436D0520D4640720D590F83D30F4
:100A3000448D002CF2D0446A24781461426A521C1E
:100A40004262428D521E4285428D002AE6D1292BF8
:100A5000E4D10268536823F4806353602122026367
:100A600080F83D1000F001FB5BE76107D6D4D94365
:100A70008905D3D4418D0029D0D0416A097811610C
:100A80000AE06107CAD4D9438905C7D4418D00293A
:100A9000C4D01169426A1170416A491C4162418D9A
:100AA000491E41853DE7704770B5040025D094F894
:100AB0003D00002520B984F83C50204600F052FA51
:100AC000242084F83D002068016821F001010160C4
:100AD0002068016841F4004101602068016821F448
:100AE0000041016000F03CFC4D4A6168914201D830
:100AF0004C4900E04C49884201D2012070BD4B496D
:100B00002368B0FBF1F15E6826F03F060E435E609D
:100B10006368934206D94FF4967359434FF47A733E
:100B2000B1FBF3F12368491C1E6A26F03F063143EE
:100B300019626168914210D84900401EB0FBF1F281
:100B4000521CC2F30B02042A01D2042022E0B0FBA3
:100B5000F1F0401CC0F30B001CE0A268F2B301EB03
:100B6000C10303EB0116431EB3FBF6F35B1C43F416
:100B700080431B0549D092B301EBC10202EB011186
:100B8000401EB0FBF1F0401CC0F30B0040F480406D
:100B900040F400402168CA694CF6FF739A43104341
:100BA000C861D4E9071001432068026822F0C0023E
:100BB00011430160D4E9030101432068826848F2CF
:100BC000FF339A4311438160D4E90501084321684A
:100BD000CA6822F0FF021043C86001E00EE016E090
:100BE0002068016841F0010101602564202084F83B
:100BF0003D00256384F83E50002070BD01EB4106A6
:100C0000431EB3FBF6F35B1CB3E70120C2E701EB25
:100C10004101401EB0FBF1F0401CC0F30B00B7E7F0
:100C2000A086010080841E0000093D0040420F00A4
:100C30007047704770477047704700002DE9FF4FBD
:100C400083B09A46DDE9119793460446DDF840806B
:100C5000FFF7ACFD054694F83D00202870D119231C
:100C6000012271492046009501F04AFD0028F5D186
:100C700094F83C00012863D0012084F83C002068EF
:100C80000168C90703D1016841F0010101602068D2
:100C9000016821F400610160222084F83D004020B9
:100CA00084F83E0000262664C4F82480A4F82A9024
:100CB000608D20855D48E062CDE9007553465A4657
:100CC0002046049901F010FB00287CD1208DD0B182
:100CD000012821D00228206824D041698069009031
:100CE000208D032869D801282BD0514902283B4682
:100CF0004FF00002009559D08846204601F000FDD3
:100D0000002860D13CE02068416981690091016858
:100D100041F40071016077E02068016821F480618E
:100D20000160F0E7016821F48061016020680168DA
:100D300041F400610160206841698069009063E0CE
:100D40006FE02A463946204601F059FD98BB2068DD
:100D50000069616A08704EE02068016841F4007122
:100D6000016020680069616A0870606A401C606206
:100D7000218D491E2185618D491E6185216838E0DC
:100D80002068016821F48061016020680069616A5F
:100D90000870606A401C6062208D401E2085608D56
:100DA000401E60853B46002241460095204601F0EA
:100DB000A7FC00B9D0E706E0FFE72A4639462046FF
:100DC00001F01DFD18B1012007B0BDE8F08F2068CB
:100DD0000069616A0870606A401C6062218D491E6A
:100DE0002185618D491E618521684A69D243520778
:100DF0000AD409690170606A401C6062208D401E3F
:100E00002085608D401E6085208D00287FF468AFAE
:100E1000202084F83D0084F83E6084F83C60002087
:100E2000D2E70220D0E70000020010000000FFFF20
:100E3000040001002DE9FF4F83B09A46DDE91197C8
:100E400093460446DDF84080FFF7B0FC054694F871
:100E50003D0020287FD119230122404920460095DA
:100E600001F04EFC002876D194F83C00012872D0A5
:100E7000012084F83C0020680168C90703D101689B
:100E800041F0010101602068016821F40061016006
:100E9000212084F83D00402084F83E00002626648E
:100EA000C4F82480A4F82A90608D20852C48E06244
:100EB000CDE9007553465A462046049901F092FA4E
:100EC00070B930E02A463946204601F0CBFC58B1D3
:100ED000206C042804D12068016841F4007101608D
:100EE000012007B0BDE8F08F606A216800780861D2
:100EF000606A401C6062218D491E89B22185628D25
:100F0000521E628522685369DB435B070BD469B1CB
:100F100000781061606A401C6062208D401E208550
:100F2000608D401E6085208D0028CBD12A46394631
:100F3000204601F0BFFB0028CAD154F83D0B0168E0
:100F400041F400710160202004F81E09E6776677FD
:100F50000020C6E7FFE70220C3E700000200100000
:100F60000000FFFF2DE9F04186B0044614216846D9
:100F7000FFF753FA2368394CDFF8DCC00025374906
:100F800012260327042236481034634527D10B6804
:100F900043F002030B600968029501F0020105911C
:100FA000F901CDE90016CDE903726946FFF70EFBA2
:100FB000206840F4001020602068002200F4001037
:100FC000059011461F2000F0FFF81F2000F0EFF8F9
:100FD00000221146202000F0F7F8202037E0DFF84B
:100FE00084C0634535D10B6843F002030B60096888
:100FF000029501F0020105914FF48061CDE90016E0
:10100000CDE9037269468046FFF7E0FA0820CDE992
:10101000000602950920CDE9037069464046FFF7B6
:10102000D5FA206840F4800020602068002200F497
:10103000800005901146212000F0C6F8212000F024
:10104000B6F800221146222000F0BEF8222000F05F
:10105000AEF806B0BDE8F0810054004030380240E0
:101060000004024000580040704770470248816801
:101070000278114481607047000000200B4810B5D1
:10108000016841F400710160016841F48061016010
:10109000016841F480710160032000F0B5F80F2071
:1010A00000F006F800F024F8002010BD003C0240DB
:1010B00070B50D4D04464FF47A712878B1FBF0F00D
:1010C0000A490968B1FBF0F000F052FB48B9102C56
:1010D00007D200222146501E00F076F800206C60F6
:1010E00070BD012070BD0000000000200C00002039
:1010F0000A4808B5016841F480410160006800F4C5
:10110000804000900548001F016841F08051016057
:10111000006800F08050009008BD00004438024094
:101120002DE9F04116460F46040004D094F83D0026
:10113000002518B107E00120BDE8F08184F83C509B
:10114000204600F05FFC242084F83D002068C16840
:1011500021F40051C160204601F0ACFF2068016914
:1011600021F4904101612068416921F02A01416127
:101170002068016921F00F0101612068016939438C
:1011800001612068C16821F40061C1602068C16804
:101190003143C1602068C16841F40051C1602564D9
:1011A000202084F83D0084F83E000020C4E7002899
:1011B00009DB00F01F02012191404009800000F18D
:1011C000E020C0F800117047F0B40E4B1B680C46CD
:1011D000C3F30223C3F10705042D00D90425191D0B
:1011E000072901D2002300E0DB1E012606FA05F1E3
:1011F000491E214099409E40761E16403143F0BC66
:1012000002F021B80CED00E0064900F00702086882
:101210004FF6FF03184040EA0220034A10430860DB
:10122000704700000CED00E00000FA052DE9F047E2
:101230000E46050065D0DFF81481D8F80000F7B23B
:1012400000F00700B04207D288F80070D8F800001C
:1012500000F00700B04254D128683D4C810712D5F8
:10126000400703D5206840F4E0502060287800074C
:1012700003D5206840F4604020602068A96820F011
:10128000F000084320602878C0072DD030496868F6
:101290000839012812D0022813D0032811D0096878
:1012A000890700292DDA216821F00301014321601B
:1012B000FFF77CFA814641F2883A0EE0096889031B
:1012C000EFE709688901ECE7FFF770FAA0EB090185
:1012D000514502D90320BDE8F0872068696800F015
:1012E0000C00B0EB810FEFD1D8F80010404601F0B0
:1012F0000701B14207D90770006800F00700B0424B
:1013000001D00120E7E72878400705D52068E96883
:1013100020F4E050084320602878000706D52068B4
:10132000296920F4604040EAC100206000F038F8EC
:101330002168084AC1F30311515CC840064908609E
:1013400006480068FFF7B4FE0020C4E7003C0240F6
:1013500008380240163600080C0000200400002067
:101360000448054900680968044AC1F38221515CB8
:10137000C84070470C00002008380240263600089C
:101380000448054900680968044AC1F34231515CC8
:10139000C84070470C00002008380240263600087C
:1013A000154810B5006810F00C02144813D0144909
:1013B000042A0FD0082A0ED10F4C241F226823685C
:1013C00002F03F025B0207D52068C0F38810A0FB43
:1013D000010106E0084610BD2168C1F38811A1FB98
:1013E00000010023FEF746FF2168C1F30141491CBB
:1013F0004900B0FBF1F010BD083802400024F400B1
:1014000040787D012DE9F84F04006ED02078DFF898
:101410004C93C007A9F104054AD009F10400016802
:10142000C1F38101012908D00068C0F381000228BE
:101430000AD1D9F80000400206D52868800337D5C4
:1014400060680028E1D033E06068B0F5803F10D0DC
:10145000B0F5A02F286810D020F4803028602868CC
:1014600020F4802028606068A8B1FFF79FF9064645
:101470000DE0286840F48030F4E740F480202860D4
:10148000F7E700BFFFF792F9801B642873D828683C
:101490008003F7D50CE0FFF789F9064605E000BFA9
:1014A000FFF784F9801B6428F0D828688003F7D4FC
:1014B0002078DFF8AC8280074FF0000A3ED5A748BD
:1014C000001D016811F00C0F08D00068C0F3810006
:1014D00002280BD1D9F80000400207D42868800701
:1014E00016D5E068012800D112E033E1E068B8B118
:1014F0000120C8F80000FFF759F9064605E000BFD3
:10150000FFF754F9801B0228C0D828688007F7D558
:101510002868216920F0F80040EAC10028600DE049
:10152000C8F800A0FFF742F9064604E0FFF73EF9CD
:10153000801B02281FD828688007F7D4207800076E
:1015400022D5864F87486169703771B101210160EA
:10155000FFF72CF9064604E0FFF728F9801B022864
:1015600009D838688007F7D50EE0C0F800A0FFF76B
:101570001DF9064605E082E0FFF718F9801B0228F6
:101580007DD838688007F7D42078400768D5DFF821
:10159000CCB100270BF13C0BDBF80000C0000BD4F2
:1015A000DBF8001041F08051CBF80010DBF80000B0
:1015B000012700F0805000906B4E3068C00510D4B9
:1015C000306840F480703060FFF7F0F8009005E07C
:1015D000FFF7ECF80099401A022850D83068C0058F
:1015E000F6D55E4EA0686C3601280FD0052830680D
:1015F00010D020F001003060306820F0040030602E
:10160000A068B8B1FFF7D2F800900FE0306840F062
:101610000100F4E740F004003060F7E7FFF7C6F898
:101620000099411A41F28830814266D830688007BB
:10163000F4D50EE0FFF7BAF8009007E0FFF7B6F830
:101640000099411A41F28830814256D830688007AB
:10165000F4D42FB1DBF8001021F08051CBF800104A
:10166000A069C8B33D49091D0968C1F38101022978
:101670004AD00228504607D0C8F8600000E03CE09D
:10168000FFF794F804463BE04746C8F86000FFF7D0
:101690008DF8064605E000BFFFF788F8801B02289A
:1016A0002BD828688001F7D4D4E907010843A16A40
:1016B0002E4A490802EB0141626A41EA821108435D
:1016C00094F82C1040EA0161C9F800100120386636
:1016D000FFF76CF8044606E03EE000BFFFF766F84F
:1016E000001B022809D828688001F7D534E000BF24
:1016F000FFF75CF8001B022802D90320BDE8F88F31
:1017000028688001F4D427E00128F7D0D9F8000038
:10171000E26900F4800191421CD1226A00F03F018D
:10172000914217D147F6C071626A0140B1EB821F46
:1017300010D1A26A4FF0FF3300F4403103EB5202A4
:10174000B1EB024F06D194F82C1000F07060B0EBB2
:10175000016F01D00120D1E70020CFE7043802401B
:1017600000004742800E4742007000400000FFFF2B
:1017700010B5401EB0F1807F01D3012010BD4FF0A5
:10178000E02460610F21601701F05DFD0020A06181
:1017900007202061002010BD70477047F8B5016830
:1017A00004460868CA684B6910F00F0F4FF0000537
:1017B00059D003F0010602F49077374365D0C10792
:1017C00005D0D10503D5216C41F001012164410709
:1017D00005D5D90703D0216C41F0020121648107AE
:1017E00005D5D90703D0216C41F00401216401071C
:1017F00007D502F02001314303D0216C41F00801EC
:101800002164216C00293AD0800604D5900602D5C7
:10181000204601F0EEFB20684069216CC0F3801087
:10182000090700D460B3204601F0BCFB2068406982
:10183000400621D52068143050E8001F21F04001F7
:1018400040E80012002AF5D1A06BA8B16C490165EF
:10185000A06BFEF793FE002811D0A06B016D01B0C4
:10186000BDE8F040084783060FD593060DD5204606
:10187000BDE8F84001F0BDBB2046FFF78EFFF8BD84
:101880002046FFF78AFF2564F8BD266B2023012E32
:1018900079D1C60677D5D60675D508684868009010
:1018A0004869400640D5A16B086840680004000CF8
:1018B000EAD0A28D8242E7D9E085C869B0F5807F81
:1018C0002DD020680C3050E8001F21F4807140E8D2
:1018D0000012002AF5D12068143050E8001F21F0D2
:1018E000010140E80012002AF5D12068143050E8C8
:1018F000001F21F0400140E80012002AF5D184F8D1
:101900003E30256320680C3050E8001F21F01001A4
:1019100040E80012002AF5D1A06BFEF7E6FDA08D8D
:10192000E18D401A81B229E0A08DE18D401A81B28B
:10193000E08D0028A8D00029A6D020680C3050E8FF
:10194000002F22F4907240E80026002EF5D1206886
:10195000143050E8002F22F0010240E80026002E4B
:10196000F5D184F83E30256320680C3050E8002F14
:1019700022F0100240E80023002BF5D12046FFF7AB
:101980000BFFF8BDFFE705062BD5150629D594F802
:101990003D002128F5D1A068B0F5805F01D1206914
:1019A000B0B1206A411C2162216800784860E08C57
:1019B000401E0004000CE084E3D12068C16821F0DF
:1019C0008001C1602068C16841F04001C160D8E772
:1019D000206A0088C0F308004860206A801C2062EA
:1019E000E5E74006CDD55006CBD5CA68204622F0A3
:1019F0004002CA6084F83D3000F09DF8C1E7000065
:101A0000952F000810B586B0044614216846FEF7ED
:101A100004FD18492068884229D11748002102682E
:101A200042F010020260006800F0100005901248B9
:101A30001438026842F001020260006800F0010000
:101A400005904FF4C06000900220CDE90101032011
:101A500003900720049069460848FEF7B7FD00226E
:101A600011462520FFF7B0FB2520FFF7A0FB06B0AD
:101A700010BD000000100140443802400000024048
:101A8000704700002DE9F843044690F83D001F46DA
:101A900016460D4620284CD1C5B1BEB194F83C0085
:101AA000012846D0012084F83C004FF00008C4F81B
:101AB0004080212084F83D00FEF778FEA684814610
:101AC000E684A068B0F5805F03D004E00120BDE8A3
:101AD000F883206928B12E465FF0000584F83C8029
:101AE0000EE00026FAE78021204601F069FBA0B94C
:101AF000AEB116F8010B21684860E08C401EE0840E
:101B0000E08C4B464FF0000200970028EBD14FF0DD
:101B10004001204601F054FB30B10320D7E735F8EF
:101B2000020BC0F30800E6E7202084F83D00002007
:101B3000CDE70220CBE77047FEE700000148FEF743
:101B40003DBE0000E40400200148FEF794BE000002
:101B5000E40400200148FEF731BE000038050020F3
:101B60000148FEF788BE00003805002038B5806BBC
:101B7000002190F83D202B4B46F2A8141B68B3FBC4
:101B8000F4F3C3EBC30303EB830300933BB15B1E8E
:101B9000009303681B689B0505D5009BF6E7036C63
:101BA00043F020030364436B03B1D963836B03B138
:101BB000D96303681C6824F480641C604185436B0E
:101BC00003B11965836B03B1196503681C6824F0C0
:101BD00001041C6090F83D402023602C0BD0282489
:101BE00034EA02020FD080F83D3080F83E1000BF8A
:101BF000FEF759FF38BD80F83D3080F83E10016493
:101C0000FEF7DAFD38BD0268136843F00103136084
:101C10000268136843F480631360016380F83D40F9
:101C2000E6E700000C00002070B5044690F83D0087
:101C300094F83E10102901D0402906D1222804D161
:101C400021680A6822F400620A60282131EA000251
:101C50004FF000054FF0200626D02168496809059D
:101C600005D4602803D084F83D6084F83E50256395
:101C700020684168090537D5416821F40061416059
:101C8000606B90F835203C49012A11D00165606BEA
:101C9000FEF774FC38B32068016821F0010101608F
:101CA00084F83D60606B1CE0256384F83D10DFE73D
:101CB000A06B0165A06BFEF761FCA0B120684169D3
:101CC000C943490605D40069616A0870606A401C0E
:101CD00060622068016821F00101016084F83D60C4
:101CE000A06B016D884710E094F83D10602910D07A
:101CF0004169C943490605D40069616A0870606A90
:101D0000401C60622046FEF7CEFE206CC1071CD14D
:101D100015E084F83D6025644169C943490605D44E
:101D20000069616A0870606A401C6062206801682E
:101D300021F0010101602046FEF73EFDE5E7810745
:101D400003D4410701D4000704D52068416821F479
:101D5000E061416094F83D00216C49070BD52828CB
:101D600009D10648E062256384F83D6084F83E505E
:101D70002046FEF75DFF70BD6D1B00080000FFFFF1
:101D800001684A69D24352050FD46FF480624A61F8
:101D9000002140F8301F202242738173026942F013
:101DA000040202610173012070470020704710B5E2
:101DB000C26A438D0168042B06D0438D032B08D0E3
:101DC000438D022B1DD012E04A6822F480624A60E3
:101DD0000CE04B6823F480634B60042A06D0022A8F
:101DE00004D001680A6822F480620A600168096907
:101DF000426A1170416A491C4162418D491E418508
:101E000010BD012A30D0102A2ED0042A30D0022A48
:101E10002ED00A6842F400720A6001680969426AB9
:101E20001170416A491C4162428D521E428502680E
:101E300012690A70416A491C4162418D491E4185FF
:101E400001684A6822F440724A60202180F83D10FF
:101E500090F83E200021402A80F83E100CD012213C
:101E60000163FEF7E6FE10BD0A6822F48062D3E744
:101E70000A6842F48062CFE70163FEF7DCFE10BD22
:101E800038B590F83D10222914D1418D032912D97B
:101E900001680969426A1170416A491C4162418DB9
:101EA000491E4185418D032904D10068416821F410
:101EB0008061416038BDC26A022AFBD0012901D08D
:101EC0000029F7D1274946F2A81300220968B1FB7F
:101ED000F3F101EB8101009101682023009C641E55
:101EE000009422D00C68A405F8D40C6824F4806413
:101EF0000C6001684C6824F4E0644C600168096976
:101F0000446A2170416A491C4162418D491E4185E4
:101F100080F83D3090F83E1080F83E2040291DD0DA
:101F200012210163FEF785FE38BD046C44F02004E5
:101F300004644C6824F4E0644C6001680969446AF4
:101F40002170416A491C4162418D491E418580F8DA
:101F50003D3080F83E20FEF7A6FD38BD0263FEF757
:101F60006AFE38BD0C00002010B5C26A90F83D1022
:101F700021290BD1418D51B1416A02680978116163
:101F8000416A491C4162418D491E418510BD202393
:101F90000021082A13D0202A11D012F5803F0ED03C
:101FA0000268546824F4E06454601122026380F8EB
:101FB0003E1080F83D3000BFFEF73CFE10BD0268C9
:101FC000546824F4E06454600268146844F40074B3
:101FD0001460016380F83D3090F83E2080F83E1098
:101FE000402AE9D1FEF728FE10BD000010B590F898
:101FF0003D1090F83E30C26A048DB4B1212903D05F
:10200000402B11D122290FD1418DE1B390F83E1020
:10201000402942D0416A026809781161416A491C2D
:102020004162418D491E418510BD2129E8D12023FF
:102030000021082A13D0202A11D012F5803F0ED09B
:102040000268546824F4E06454601122026380F84A
:102050003E1080F83D3000BFFEF7ECFD10BD026879
:10206000546824F4E06454600268146844F4007412
:102070001460016380F83D3090F83E2080F83E10F7
:10208000402AE9D100E002E0FEF7D6FD10BD00686D
:10209000416821F48061416010BDBDE8104000F04E
:1020A000D3B8000078B590F83E50C26A036B90F840
:1020B0003D6000240168222E7AD1066D0EB9402DB4
:1020C00076D0056D1DB90569B5F5404F09D0458D30
:1020D00005B3468D384D012E0ED0438D022B3AD0DC
:1020E0005DE04A698A6900920A6842F480720A6077
:1020F000016D491C016578BDAA4213D10A6822F41A
:1021000080620A6001684A68120503D50A6822F4F1
:10211000806216E04A698A6900920A6842F4007295
:102120000A6039E0082A10D0202A0ED0122B0AD0DB
:10213000042A03D0022A01D0102AE7D10A6842F407
:1021400080620A6024E0012AE0D00A6822F48062FA
:102150000A600168DEE7042A21D0022A1FD0102A73
:102160001DD00B6823F480630B6001680B6843F497
:1021700000630B6001684B681B0509D5AA4212D0A9
:10218000012A10D0082A0ED0102A0CD0202A0AD0FA
:1021900001684A6989690091046578BD08E00B68A7
:1021A00043F48063E5E74A6842F480524A60EFE70F
:1021B000486988690090F0E70000FFFF90F83E1042
:1021C000402910D00169B1F5804F19D0016DA9B334
:1021D000016D012910D1416C5FF0F10201F44071F1
:1021E00042EAD11106E0016D0029416C05D0C9B267
:1021F00041F0010100680161704701F0FE01F9E75B
:1022000090F83D102129416C09D0C9B241F001017B
:1022100002681161416B29B1C96B49B902E001F053
:10222000FE01F5E7816B0029E6D0C96B0029E3D0F8
:102230000068416841F4006141607047FFE7416C0C
:10224000F02201F44071CBE710B590F83D10026D1B
:1022500022B3026D012A2FD0026D022A1DD122293C
:102260002FD0428D0AB1212933D0428D002A14D1BA
:10227000212912D101684A6822F4E0624A600168AB
:102280000A6842F400720A6000210163202280F88B
:102290003D2080F83E10FEF7CFFC10BDC16C012937
:1022A000816C02D0C1F3072108E00268C9B2116154
:1022B000016D891C016510BD816CC9B20268116194
:1022C00004E001680A6842F480720A60016D491CEA
:1022D000F0E7416A026809781161416A491C41626C
:1022E000418D491E418510BD2DE9F84F0446006817
:1022F00089460B9D01689846174641F4806101604C
:102300002068016841F48071016000954FF0011B65
:102310000022594620460A9B00F0F2F94FF4007A59
:1023200040B120680068C00501D5C4F840A0032072
:10233000BDE8F88F216809F0FE0008612B462849A6
:1023400020460A9A00F010FAF0BB206841698069C3
:1023500000902A4620460A9900F084FA40B1206C89
:1023600004283AD12068016841F40071016034E02A
:10237000FEB2B8F1010F09D02168380A08612A4677
:1023800020460A9900F06EFA0028E8D1206806611C
:102390002A4620460A9900F065FA0028DFD1206815
:1023A000016841F480710160009500225946204681
:1023B0000A9B00F0A5F90028B3D1216809F0FF00BD
:1023C00040F00100086100E007E02B460449204688
:1023D0000A9A00F0C9F90028AAD00120A8E7000055
:1023E000020001002DE9F843044600680D46DDE9CE
:1023F000089701689846164641F4807101604B4683
:1024000000224FF001112046009700F079F948B101
:1024100020680068C00502D54FF4007020640320D6
:10242000BDE8F883216805F0FE0008613B464A4696
:102430001549204600F098F988B9206841698069FB
:1024400000903A464946204600F00CFA48B1206C0C
:10245000042804D12068016841F400710160012062
:10246000DEE7F5B2B8F1010F09D02168300A086142
:102470003A464946204600F0F5F90028E7D12068A1
:1024800005610020CCE700000200010038B50C46D1
:1024900090F83D2000212825954302680B4605D081
:1024A00051699169009180F83C3038BD556825F438
:1024B00080655560E243540700D50121120601D51D
:1024C000828900E0028B80F83C3092B2FEF775F909
:1024D00038BD00002DE9F04190F83D40C26A00236C
:1024E00020261C4F01686FF48065082A01D0202A3D
:1024F00001D1282C04D0212C16D04D61BDE8F081EB
:10250000C7624A6822F4E0624A6001684D6101686E
:102510000A6822F480620A60036380F83D6080F8F4
:102520003E30FEF785FBE9E7C7622122026380F8AF
:102530003D6080F83E304A6822F4E0624A600168FB
:102540004D6101680A6822F480620A60FEF78DFD21
:10255000D4E700000000FFFFF8B590F83D600446A6
:102560000068416821F4E06141602068002541690C
:102570000091016841F0010101602068016821F4C7
:102580008061016020684168090520D5474F222EEF
:1025900048D02A2E46D0616B096849686185618DF3
:1025A00019B1216C41F004012164416821F40061FA
:1025B0004160606BFDF7F4FF012808D0606B076590
:1025C000606BFDF7DBFF10B1606B016D8847608DBC
:1025D00008B320684169C943490708D40069616AA2
:1025E0000870606A401C6062608D401E60852068D3
:1025F0004169C943490608D40069616A0870606A84
:10260000401C6062608D401E6085608D18B1206C3A
:1026100040F004002064206C00B32046BDE8F84080
:10262000FFF702BBA16B096849686185618D19B12B
:10263000216C41F004012164416821F40061416092
:10264000A06BFDF7ADFF0128C1D0A06B0765A06BA3
:10265000FDF794FF0028BAD0A06BB6E72A2E06D16A
:102660002563282084F83D002046FEF7FDFC94F801
:102670003D10202028290DD0216B222901D0222EA7
:1026800007D1256384F83D0084F83E502046FEF7CC
:10269000EBFCF8BD0649E162256384F83D0084F84F
:1026A0003E502046FEF7C4FAF8BD00006D1B00083E
:1026B0000000FFFF70B516460D4604460DE02046AB
:1026C000FFF75EFB08B1012070BD681C05D0FEF766
:1026D0006DF8801BA84207D835B120684069C04317
:1026E0004007ECD4002070BD002044F8300F2021BA
:1026F0006173A073216941F0200121612073E2E739
:102700002DE9F0471E4690460D460446C1F30747A3
:10271000DDF8209008E0701C06D0FEF747F8A0EB2B
:102720000900B0420FD876B12068012F18D0806917
:1027300025EA00000004000C14D000214145EAD035
:102740000020BDE8F087002044F8300F202161739D
:10275000A073216941F02001216120730120F0E77D
:102760004069E5E70121E9E72DE9F0479A469146FE
:102770000E46044600254FF02008C1F3074725E028
:1027800020684069C043400514D42068016841F4C2
:102790000071016021686FF480604861256384F8EE
:1027A0003D8084F83E50206C40F00400206484F8A2
:1027B0003C501FE0B9F1FF3F08D0FDF7F7FFA0EB59
:1027C0000A0149450CD8B9F1000F09D02068012F42
:1027D00013D0806926EA00000004000C0BD0CFE77C
:1027E00044F8305F84F80D80A573206940F0200024
:1027F000206125730120BDE8F0874069EAE72DE9F3
:10280000F041002590460E460446202717E0406917
:10281000C043C0060CD454F8301B6FF01000486160
:1028200044F810596777A577206A2062257717E06A
:10283000FDF7BCFFA0EB0800B04208D83EB120680D
:102840004169C9434906E2D40020BDE8F08144F85B
:10285000305F6773A573206940F020002061257305
:102860000120F2E770B516460D4604460DE02046FD
:10287000FFF786FA08B1012070BD681C05D0FDF78E
:1028800095FF801BA84207D835B120684069C04336
:102890000006ECD4002070BD002044F8300F202149
:1028A0006173A073216941F0200121612073E2E787
:1028B0000FB42A22F0B585B00AA93348FDF751FDBF
:1028C000BDF85200304C60851598E0621698206380
:1028D000092217A904F13400FDF743FD9DF86500B6
:1028E00084F83D009DF8660084F83E001A98206444
:1028F0001B9860641C98A0641D98E0641E98206575
:10290000012504A8CDE900054FF47A742B46752201
:10291000D02102941C48FEF791F99DF81000682818
:102920002ED1002703AE8DF80C700096CDE901542E
:1029300001236B22D0211448FEF77CFA17208DF872
:102940000C000096CDE9015401231922D0210E4834
:10295000FEF770FA8DF80C700096CDE90154012352
:102960001C22D0210848FEF765FA8DF80C700096FD
:10297000CDE9015401231B22D0210348FEF75AFA66
:1029800005B0F0BC5DF814FBD00500200D4808B57B
:10299000016841F080010160016801F0800100914F
:1029A000016841F002010160016801F0020100913B
:1029B000016841F001010160006800F00100009031
:1029C00008BD0000303802400D4810B50B490160C9
:1029D0000C49416000214FF480428160C0E903123C
:1029E00041618161C1610162FEF75EF8002803D098
:1029F000BDE81040FDF777BD10BD00000054004059
:102A0000E4040020801A06000D4810B50B4901604F
:102A10000C49416000214FF480428160C0E90312FB
:102A200041618161C1610162FEF73EF8002803D077
:102A3000BDE81040FDF757BD10BD00000058004034
:102A400038050020801A06000D4810B50B490160BA
:102A50004FF4E1314160002181600C22C160C0E986
:102A6000041281610A46C161FEF75AFB002803D0B7
:102A7000BDE81040FDF737BD10BD0000001001405B
:102A80008C050020FEE7FEE72DE9F05F8846002177
:102A9000072681460C46DFF87CA0012305E000BF35
:102AA0001AF800201143401CC0B24045F8D901E09B
:102AB000641CE4B203FA04F218460A42F8D001E0BA
:102AC000761EF6B200FA06F20A42F9D032462146E4
:102AD000484600F0D8F94F46DFF83CB00EE02546F6
:102AE00008E000BF0BEBC510C15D402000F0EAF923
:102AF0006D1CEDB2B542F5D97F1CFFB24745EED94A
:102B0000A8EB09010AEB0900BDE8F05F491CFDF7DD
:102B100062BC000010040020100000202DE9F84FD6
:102B20000024DDE90A8A994615468B460746DE1DD4
:102B30000EE04B46424659463846CDF800A000F01C
:102B40000FF86D1E04437F1C08EBD608EDB2FFB2F0
:102B5000002DEED114B10120BDE8F88F0020FBE775
:102B60002DE9FF4F83B01C46DDF840A00E46074616
:102B7000802802D23019402803D9012007B0BDE8CF
:102B8000F08F002086E04649F20801EBC21900925E
:102B900019F80750BAF1000F06D0BAF1010F2CD086
:102BA000BAF1020F45D05FE006F0070BCBF1080049
:102BB0000190A04211D3C4F10800FF21A0EB0B0249
:102BC0008140C8B2D04028402D1A2246414605987F
:102BD00000F049FB00FA0BF01EE0FF2000FA0BF0BA
:102BE00028402D1A4146019A059800F03CFB00FA56
:102BF0000BF02843C5B2019836E006F007000190BB
:102C0000C0F108008346A04209D3224641460598F8
:102C100000F029FB019988402843C5B219E002461B
:102C20004146059800F01FFB019988402843C5B232
:102C300019E006F007000190C0F108008346A042A9
:102C400009D322464146059800F00DFB01998840C2
:102C50008543204608E002464146059800F003FB04
:102C6000019988408543584619F80710A94209D0B0
:102C70000C4A009B4FF0010CD15D0CFA03FC41EAB9
:102C80000C01D155211ACCB23118404409F8075033
:102C9000CEB2C0B28046002C7FF475AF00206DE745
:102CA00010000020100400201CB5074C02EB42026B
:102CB00004EB42020023C03ACDE900230823062298
:102CC000FFF72CFF1CBD0000EE33000870B5064670
:102CD0000021084600F0D4F800244FF48065314606
:102CE000402000F0EFF8641CA4B2AC42F7D33246A7
:102CF00029460448FDF767FBBDE870408021024883
:102D0000FDF78BBB10000020100400200FB42A2216
:102D100010B502A94848FDF724FBBDF83200464C27
:102D200060850D98E0620E98206309220FA904F1D6
:102D30003400FDF716FB9DF8450084F83D009DF832
:102D4000460084F83E00129820641398606414983A
:102D5000A0641598E06416982065AE21002000F06C
:102D6000B1F82021002000F0ADF80121002000F092
:102D7000A9F88121002000F0A5F8FF21002000F033
:102D8000A1F8C821002000F09DF8A121002000F04A
:102D900099F8A821002000F095F83F21002000F0CC
:102DA00091F8D321002000F08DF80021084600F0B2
:102DB00089F8D521002000F085F88021002000F05E
:102DC00081F8D821002000F07DF80521002000F0D6
:102DD00079F8D921002000F075F8F121002000F0E9
:102DE00071F8DA21002000F06DF81221002000F0C7
:102DF00069F8DB21002000F065F83021002000F0A8
:102E000061F88D21002000F05DF81421002000F011
:102E100059F8A421002000F055F8A621002000F068
:102E200051F80020FFF752FF10BCAF2100205DF8E1
:102E300014EB00F047B800009004002070B50020AB
:102E40000E4D03E0401CC0B2802802D8295C002946
:102E5000F8D0014601E0491CC9B2802902D86A5C59
:102E6000002AF8D1491ECCB2802802D82146FFF7AB
:102E70000BFE641CE0B28028E6D970BD100400206F
:102E80000722AFF3008070B50D4604461646222196
:102E9000002000F017F82946002000F013F8314612
:102EA000002000F00FF82121002000F00BF821464F
:102EB000002000F007F8BDE870407F21002000F0FE
:102EC00001B8000003B583B0FF23012204A98DE8F7
:102ED0000E001346024678210248FDF7ABFF05B00D
:102EE00000BD00009004002070477047FEF7BEB898
:102EF00030B593B030216846FDF78FFA14210CA845
:102F0000FDF78BFA1D480024016841F080510160F3
:102F1000006800F0805011901948016821F4404188
:102F200041F4004101600068022500F44040119026
:102F30000120039010200490009506950820CDE90B
:102F400007405420CDE9090504200B906846FEF7A0
:102F500059FA08B172B6FEE70F20CDE90C054FF41F
:102F60008050CDE90E4002210CA81094FEF75EF9C6
:102F7000002801D072B6FEE713B030BD40380240E1
:102F8000007000400248016841F470010160704720
:102F900088ED00E010B5806B0021C185C184FEF78B
:102FA000FCFB10BD01680C3151E8002F22F4907237
:102FB00041E80023002BF5D10168143151E8002FBE
:102FC00022F0010241E80023002BF5D1016B012919
:102FD00009D101680C3151E8002F22F0100241E8BC
:102FE0000023002BF5D1202180F83E100021016341
:102FF000704708B590F83E10222901D0022008BD84
:1030000082684FF480539A4201D1016921B1816AEB
:103010009A421BD04AB10AE00268816A5268C2F340
:1030200008020A80816A891C08E0026972B102689C
:10303000526802F07F020A70816A491C8162C18D68
:10304000491E0904090CC18503D019E002685268C1
:10305000F1E70168CA6822F02002CA600168CA6804
:1030600022F48072CA6001684A6922F001024A6152
:10307000202180F83E10016B012903D0FEF700FDEE
:10308000002008BD0021016301680C3151E8002FC8
:1030900022F0100241E80023002BF5D101680A68F4
:1030A000D20602D50A6849680091818DFEF774FB4B
:1030B000E6E7000070B5044600680169E26821F4A3
:1030C0004051114301612169A068E26908436169C7
:1030D000114308432168CA6849F20C639A430243CA
:1030E000CA6020684169A26921F4407111434161BD
:1030F00031492068884202D03049884202D1FEF727
:103100003FF901E0FEF72CF9E2690023192164255B
:103110003226B2F5004F626828D0A0FB0101930F60
:103120009200FDF7A7F80146B0FBF5F06FF018022A
:10313000504301EB800006EB0010B0FBF5F000F00F
:10314000F002B1FBF5F002EB0012B1FBF5F06FF00D
:103150001803584301EB800006EB0010B0FBF5F0BC
:1031600000F00F0021681044886070BDA0FB0101D1
:1031700092185B41FDF77EF80146B0FBF5F00201C5
:10318000B1FBF5F06FF01803584301EB800006EB3C
:10319000C000B0FBF5F000F0F80002EB4002B1FB1C
:1031A000F5F0584301EB800006EBC000B0FBF5F0F2
:1031B00000F00700D6E700000010014000140140B5
:1031C0002DE9F041984617460E460446069D27E035
:1031D000681C25D02DB1FDF7E9FAA0EB0800A84244
:1031E0001ED920680C3050E8001F21F4D07140E84F
:1031F0000012002AF5D12068143050E8001F21F099
:10320000010140E80012002AF5D1202084F83D0099
:1032100084F83E00002084F83C000320BDE8F081E3
:103220002068006836EA000004D00020B842CFD001
:103230000020F3E70120F9E70148FEF7AFBA0000EC
:103240008C050020FEE70907090E002804DB00F1C9
:10325000E02080F80014704700F00F0000F1E0203B
:1032600080F8141D704730B500EBD1031D7801F0D4
:103270000703C3F10804DD40121BD2B2214453B24C
:10328000C9B2002B04DC5942FF20C840284030BDA1
:10329000FFF7E9FFA0402843C0B230BDA6B0FDF75C
:1032A000EDFEFFF725FEFFF771FBFFF7CDFBFFF704
:1032B0008BFBFFF7A9FB4FF6FF730A2243A1464899
:1032C000FEF7E0FB2A22454911A8FDF74AF8434CD6
:1032D000608DADF86E00E06A1C90206B1D90092295
:1032E00004F134011EA8FDF73CF894F83D008DF878
:1032F000810094F83E008DF88200206C2190606C73
:103300002290A06C2390E06C2490206D25904422A4
:1033100015A96846FDF725F80DF1440C9CE80F004F
:10332000FFF7F4FC0A2163220846FFF7BDFCFFF714
:1033300085FD2A222A4911A8FDF713F8284C608D33
:10334000ADF86E00E06A1C90206B1D90092204F11C
:1033500034011EA8FDF705F894F83D008DF88100B2
:1033600094F83E008DF88200206C2190606C2290D1
:10337000A06C2390E06C2490206D2590442215A928
:103380006846FCF7EEFF0DF1440C9CE80F00FFF7D8
:103390008FFA40F6B830FDF707F9042425462826B1
:1033A000F2B2E9B2E0B2FFF77FFCFFF747FD641C21
:1033B0007C2C01D104246D1C3C2D00D1042532202D
:1033C000FDF7F2F8761C642EEADDE8E768656C6CC0
:1033D0006F776F726C6400008C050020E40400209D
:1033E000380500204FF04070E1EE100A70470000F1
:1033F000000000000000002F000000000700070090
:1034000000147F147F1400242A7F2A1200626408AB
:103410001323003649552250000005030000000028
:103420001C224100000041221C000014083E081428
:103430000008083E0808000000A060000008080816
:103440000808000060600000002010080402003E30
:103450005149453E0000427F4000004261514946CB
:10346000002141454B31001814127F1000274545BB
:103470004539003C4A4949300001710905030036CD
:103480004949493600064949291E000036360000E0
:1034900000005636000000081422410000141414E5
:1034A00014140000412214080002015109060032E0
:1034B0004959513E007C1211127C007F494949361E
:1034C000003E41414122007F4141221C007F494989
:1034D0004941007F09090901003E4149497A007FBD
:1034E0000808087F0000417F4100002040413F0163
:1034F000007F08142241007F40404040007F020CC2
:10350000027F007F0408107F003E4141413E007F62
:1035100009090906003E4151215E007F091929462B
:103520000046494949310001017F0101003F404007
:10353000403F001F2040201F003F4038403F0063B5
:1035400014081463000708700807006151494543D7
:1035500000007F41410000552A552A550000414195
:103560007F0000040201020400404040404000008F
:1035700001020400002054545478007F4844443829
:1035800000384444442000384444487F00385454B0
:10359000541800087E0901020018A4A4A47C007F2E
:1035A000080404780000447D4000004080847D00D1
:1035B000007F102844000000417F4000007C041878
:1035C0000478007C0804047800384444443800FC43
:1035D000242424180018242418FC007C080404085F
:1035E00000485454542000043F444020003C4040D4
:1035F000207C001C2040201C003C4030403C00440B
:1036000028102844001CA0A0A07C004464544C4412
:10361000141414141414000000000000000001022F
:10362000030406070809000000000102030400006B
:10363000503600080000002010000000D0010008F3
:103640006036000810000020900C0000EC0100081B
:103650000100000010000000000000000024F40041
:040000050800019559
:00000001FF
