:020000040800F2
:1000000030050020AD0100089B2E0008091E0008E5
:10001000992E00083D080008F93100080000000092
:100020000000000000000000000000009F2E0008FB
:100030003F080008000000009D2E0008A12E0008C7
:10004000C7010008C7010008C7010008C701000870
:10005000C7010008C7010008C7010008C701000860
:10006000C7010008C7010008C7010008C701000850
:10007000C7010008C7010008C7010008C701000840
:10008000C7010008C7010008C70100080000000000
:10009000000000000000000000000000C701000890
:1000A000C7010008C7010008C7010008C701000810
:1000B000C7010008C7010008C7010008C701000800
:1000C000C7010008191E00080D1E0008C70100081E
:1000D000C7010008ED310008C7010008000000005A
:1000E000C7010008C7010008C701000800000000A0
:1000F000000000000000000000000000C701000830
:1001000000000000C7010008C7010008C70100087F
:1001100000000000000000000000000000000000DF
:10012000C7010008C7010008C7010008C70100088F
:10013000C7010008000000000000000000000000EF
:10014000000000000000000000000000C7010008DF
:10015000C7010008C7010008C7010008C70100085F
:10016000C7010008C70100080000000000000000EF
:10017000000000000000000000000000000000007F
:1001800000000000C701000800000000000000009F
:10019000C7010008DFF810D000F03EFB0048004720
:1001A000013B0008AFF3008030050020064880477F
:1001B00006480047FEE7FEE7FEE7FEE7FEE7FEE74C
:1001C000FEE7FEE7FEE7FEE7392F0008950100088D
:1001D0002DE9F05F0546002092469B46884606467C
:1001E000814640241BE0284641464746224600F00F
:1001F0002DFA53465A46C01A914110D3114618465B
:10020000224600F014FA2D1A67EB01084F462246E9
:100210000120002100F00BFA17EB00094E41201ECF
:10022000A4F10104DFDC484631462A464346BDE8D6
:10023000F09F40EA01039B0703D009E008C9121FA1
:1002400008C0042AFAD203E011F8013B00F8013B90
:10025000521EF9D27047D2B201E000F8012B491EBC
:10026000FBD270470022F6E710B513460A46044653
:100270001946FFF7F0FF204610BD2DE9FE4F8046DE
:1002800081EA0300C00F0C46009021F0004123F0EA
:100290000045B8EB0200A94105D2404621469046F0
:1002A0001C460B46024623F00040104347D0270D62
:1002B000C7F30A00C3F30A510290401A0190402884
:1002C0006BDAC3F3130040F4801B0098924620B110
:1002D0000023D2EB030A63EB0B0B01985946C0F1E4
:1002E0004002504600F0A3F906460D4650465946D6
:1002F000019A00F0BBF910EB08006141002487EA85
:10030000115284EAE7731A4340D0009A62B3019A0B
:10031000012A4FEA075215DC001B61EB02014FF086
:10032000004202EA0752CDE90042001C41F580116B
:1003300032462B4600F0F2F903B0BDE8F08F40469C
:100340002146F9E7001B61EB0201001C41F5801317
:1003500000185B412018A2F5001747EB030140EAA3
:10036000D570B6196D4111E06D084FEA360645EAC1
:10037000C0754FEA0752001B61EB0201001C41F5FA
:10038000801149084FEA30000019514132462B468E
:1003900003B0BDE8F04F00F0B2B900980122400070
:1003A0000023D0EB020263EBE073009821464FEA92
:1003B000E074B8EB000061EB0401E9E783F000436F
:1003C0005BE781F0004158E72DE9FE4F81EA030425
:1003D00004F0004421F0004100944FF0000B23F0A2
:1003E000004350EA01045ED052EA03045BD0C3F339
:1003F0000A54C1F30A552C44A4F2F3340194A0FB2F
:100400000254C1F3130141F48011C3F3130343F405
:10041000801301FB024400FB034E840A970A44EA5E
:10042000815447EA8357A4FB076802958D0A05FBB0
:1004300007854FEA932C04FB0C542705029D4FEAD5
:10044000065847EA1637B5EB08056EEB070C870E22
:10045000920E47EA811742EA8312A7FB0201B6EB2C
:100460000B0164EB00042B0D43EA0C335E1844EBE4
:100470001C50DA465146E7FB0201C5F313044FEA6C
:100480000B3343EA14534FEA0432019C43EA060358
:10049000A4F10C040294009CCDE900B400F03EF9F4
:1004A00003B0BDE8F08F00200146F9E72DE9F04DDB
:1004B00081EA030404F0004B21F0004514464FF09C
:1004C000000A23F0004150EA050220D054EA01025C
:1004D0001DD0C5F30A570246C5F31303C1F3130039
:1004E000C1F30A5640F4801543F48013A7EB0608C5
:1004F000101BD64608F2FD3873EB050002D308F155
:10050000010801E092185B41B8F1000F03DA002006
:100510000146BDE8F08D00204FF480110646844668
:100520000EE0171B73EB050705D3121B63EB0503E6
:1005300006434CEA010C49084FEA300092185B412F
:1005400050EA0107EDD152EA030012D082EA04001A
:1005500083EA0501084305D0101BAB4106D20122F6
:10056000002306E000224FF0004302E06FF001029A
:1005700053101AEB06004CEB085110EB0A0041EB4C
:100580000B01BDE8F04D00F0BAB80EB540F23341B2
:1005900002910021CDE900110A460B4600F0BEF899
:1005A00003B000BD00F0004230F000400AD0C10DA1
:1005B00001F56071C0F3160042EA0151C20840071C
:1005C0001143704700200146704701F0004330B4EA
:1005D00021F0004150EA010206D00A0DA2F5607236
:1005E000C1F31301002A02DC30BC00207047440F25
:1005F00044EAC104C100E01830BC00EBC25000F076
:1006000047B830B50B46014600202022012409E0FE
:1006100021FA02F59D4205D303FA02F5491B04FABB
:1006200002F52844151EA2F10102F1DC30BD202A9A
:1006300004DB203A00FA02F1002070479140C2F139
:10064000200320FA03F3194390407047202A04DB6B
:10065000203A21FA02F00021704721FA02F3D0403B
:10066000C2F120029140084319467047202A06DB58
:10067000CB17203A41FA02F043EAE07306E041FA70
:1006800002F3D040C2F1200291400843194670475E
:100690000029A8BF7047401C490008BF20F0010096
:1006A000704710B4B0FA80FC00FA0CF050EA010474
:1006B00004BF10BC704749B1CCF1200421FA04F406
:1006C00011FA0CF118BF012121430843A3EB0C01DF
:1006D000CB1D4FEA00614FEA102042BF002010BC42
:1006E000704700EBC35010440029A4BF10BC7047F2
:1006F000401C490008BF20F0010010BC704710B535
:10070000141E73F1000408DA401C41F10001921834
:100710005B411A4301D120F0010010BD2DE9F04DDD
:1007200092469B4611B1B1FA81F202E0B0FA80F232
:1007300020329046FFF77BFF04460F4640EA0A004E
:1007400041EA0B0153465A46084313D0114653EA77
:10075000010019D0C8F140025046FFF777FF054667
:100760000E46504659464246FFF761FF084305D002
:10077000012004E020463946BDE8F08D0020054305
:1007800046EAE0762C4337430A986305E40AA0EB77
:1007900008000022FD0A44EA47540A3002D500202E
:1007A0000146E9E7010510196941DDE9084500192D
:1007B0006941BDE8F04DA2E7C1F30A52C1F313014C
:1007C00040F2FF3341F480119A4202DA00200146E0
:1007D000704740F233439A42A2F2334202DC524263
:1007E000FFF734BFFFF723BF30B5041E71F10004DB
:1007F00004DB4FF00044404264EB0101141E73F12E
:10080000000405DB1C464FF00043524263EB040337
:10081000994208BF904230BD064C074D06E0E068A3
:1008200040F0010394E8070098471034AC42F6D337
:10083000FFF7B4FC783C0008983C0008FEE77047DE
:1008400072B6FEE72DE9F0410446876D00F05AF9D3
:10085000064694F835000025022806D08020606501
:1008600084F834500120BDE8F0812068016821F04F
:10087000160101602068416921F080014161206C0E
:1008800008B9A06C20B12068016821F0080101605E
:100890002068016821F0010101600CE000F032F9EC
:1008A000801B052807D920206065032084F83500C7
:1008B00084F83450D7E720680068C007EED194F878
:1008C0005C103F208840B860012084F8350084F82F
:1008D00034500020C7E790F83510022903D080215A
:1008E000416501207047052180F8351000680168D6
:1008F00021F0010101600020704790F83500704739
:1009000070B5044600F0FEF80546601C02D00448AD
:100910000078044400F0F6F8401BA042FAD370BD02
:10092000140000202DE9F84FDFF8B8A100220124BF
:100930000AF1040B03254FF00F090BF1040E00BF61
:100940000B6804FA02F63340B34273D10F7907F013
:100950000307012F01D0022F16D187684FEA420802
:1009600005FA08FC27EA0C07D1F80CC00CFA08FCC1
:100970004CEA070CC0F808C04768B7430E79C6F3C5
:10098000001696403E4346600E79F643B6070DD0FA
:10099000C768560005FA06FC27EA0C07D1F808C01C
:1009A0000CFA06FC4CEA070CC0F80CC00E7906F0F5
:1009B0000306022E10D1D60800EB8608D8F8206076
:1009C00057074FEAD76C09FA0CF7BE430F6907FACD
:1009D0000CF73743C8F8207006684FEA420C05FA56
:1009E0000CF7BE430F7907F0030707FA0CF73743FC
:1009F00007604E6816F4403F6DD03B4E376847F4B1
:100A000080473760366822F0030706F48046009678
:100A1000364E07EB060CDCF8086897073F0F09FA1B
:100A200007F826EA0806DFF8C880404503D14FF0F2
:100A300000081EE04FE0DFF8BC80404502D14FF0D7
:100A4000010816E0DFF8B080404502D14FF00208FF
:100A50000FE0DFF8A880404502D14FF0030808E01E
:100A6000DFF89C80404502D14FF0040801E04FF0D0
:100A7000070808FA07F848EA0608CCF80888DAF800
:100A800000605746D1F804C09E435FEACC3C00D5D5
:100A90001E433E60DBF800605F46D1F804C09E4311
:100AA0005FEA8C3C00D51E433E60DEF8006077466E
:100AB000D1F804C09E435FEACC2C00D51E433E60B3
:100AC000084F0C373E68D1F804C09E435FEA8C2C77
:100AD00000D51E433E60521C102AFFF431AFBDE822
:100AE000F88F0000003C01404438024000300140D3
:100AF000000002400004024000080240000C0240D6
:100B00000010024001488068704700001400002077
:100B1000704770472DE9F041016804464A694E6804
:100B200090F83E000025D743FA0506D4F243D205DB
:100B300003D46FF4807201254A61B90508D4F143EA
:100B4000C90505D422686FF4007145F002055161B2
:100B5000790525D4F143C90522D4638D94F83D105D
:100B6000226B202808D13BB9212910D029290ED089
:100B7000282901D1212A0AD022686FF480615161AD
:100B800045F00405102806D0402804D008E020468F
:100B900001F0FCFD04E02068016841F4007101608F
:100BA000380508D4F043C00505D421686FF400600F
:100BB00045F008054861002D07D0206C28432064CB
:100BC0002046BDE8F04101F08BB9BDE8F0812DE988
:100BD000F047026800215368C66A90F83E4090F8DA
:100BE0003D50102C12D0402C10D0046C002C7DD025
:100BF0005469E443A6077AD4DE43B60577D4036C80
:100C000003B19169BDE8F04701F09CBD9769516956
:100C10004FF42A0CC9435FEAC1784FF02A4904D047
:100C200066452AD04E4528D010E0DE43B6050DD4E7
:100C3000C16A614501D1012103E0C16A494501D181
:100C40000821C162BDE8F04701F014BC0E0716D4BC
:100C5000DE43B60513D4416CC9B21161416B09B1D1
:100C6000C96B29B9816B002907D0C96B002904D051
:100C70000068416841F400614160BDE8F0878E077B
:100C800006D4DE43B60503D4BDE8F04701F066BBE9
:100C9000FE43526876074FEA02521DD4002AECDB6D
:100CA0000A0608D4DA43520505D4490705D5BDE83C
:100CB000F04701F0F7BA4907DFD4D9438905DCD4FE
:100CC000212D05D0402CD8D1BDE8F04701F018BC4B
:100CD000BDE8F04701F0A4BA002ACEDB4A060BD4E7
:100CE000DA43520508D4490708D501E00DE00EE0CB
:100CF000BDE8F04701F020BA4907BED4D9438905C1
:100D0000BBD4BDE8F04701F0AEB9916970E7E106E8
:100D100006D4D943890503D4BDE8F04701F078BD76
:100D20002821212D27D0292D25D0650655D4DD4336
:100D30006D0552D4640752D590F83D30448D002C97
:100D40009BD01269446A2270426A521C4262428DF0
:100D5000521E4285428D002A8FD12A2B8DD10268E6
:100D6000536823F4806353602222026380F83D10AD
:100D700000F0F6FA81E7250623D4DD436D0520D483
:100D8000640720D590F83D30448D002CF2D0446AA1
:100D900024781461426A521C4262428D521E42857E
:100DA000428D002AE6D1292BE4D10268536823F44E
:100DB000806353602122026380F83D1000F0D1FA75
:100DC0005BE76107D6D4D9438905D3D4418D002987
:100DD000D0D0416A097811610AE06107CAD4D943C9
:100DE0008905C7D4418D0029C4D01169426A1170A8
:100DF000416A491C4162418D491E41853DE770476A
:100E000070B5040025D094F83D00002520B984F881
:100E10003C50204600F052FA242084F83D0020681F
:100E2000016821F0010101602068016841F400417E
:100E300001602068016821F40041016000F0C6FBF8
:100E40004D4A6168914201D84C4900E04C498842C2
:100E500001D2012070BD4B492368B0FBF1F15E68FF
:100E600026F03F060E435E606368934206D94FF456
:100E7000967359434FF47A73B1FBF3F12368491C1D
:100E80001E6A26F03F06314319626168914210D80C
:100E90004900401EB0FBF1F2521CC2F30B02042ABF
:100EA00001D2042022E0B0FBF1F0401CC0F30B00A3
:100EB0001CE0A268F2B301EBC10303EB0116431E71
:100EC000B3FBF6F35B1C43F480431B0549D092B39C
:100ED00001EBC10202EB0111401EB0FBF1F0401C1E
:100EE000C0F30B0040F4804040F400402168CA6920
:100EF0004CF6FF739A431043C861D4E907100143CD
:100F00002068026822F0C00211430160D4E90301A5
:100F100001432068826848F2FF339A43114381609D
:100F2000D4E9050108432168CA6822F0FF02104392
:100F3000C86001E00EE016E02068016841F00101A0
:100F400001602564202084F83D00256384F83E502C
:100F5000002070BD01EB4106431EB3FBF6F35B1CA2
:100F6000B3E70120C2E701EB4101401EB0FBF1F005
:100F7000401CC0F30B00B7E7A086010080841E0070
:100F800000093D0040420F007047704770477047AE
:100F9000704700002DE9FF4F83B09A46DDE91197B5
:100FA00093460446DDF84080FFF7ACFD054694F813
:100FB0003D00202870D11923012271492046009557
:100FC00001F0FAFC0028F5D194F83C00012863D028
:100FD000012084F83C0020680168C90703D101683A
:100FE00041F0010101602068016821F400610160A5
:100FF000222084F83D00402084F83E00002626642C
:10100000C4F82480A4F82A90608D20855D48E062B1
:10101000CDE9007553465A462046049901F0C0FABE
:1010200000287CD1208DD0B1012821D00228206851
:1010300024D0416980690090208D032869D8012857
:101040002BD0514902283B464FF00002009559D061
:101050008846204601F0B0FC002860D13CE02068C2
:10106000416981690091016841F40071016077E094
:101070002068016821F480610160F0E7016821F4D3
:10108000806101602068016841F4006101602068AE
:1010900041698069009063E06FE02A463946204646
:1010A00001F009FD98BB20680069616A08704EE094
:1010B0002068016841F40071016020680069616A7C
:1010C0000870606A401C6062218D491E2185618D17
:1010D000491E6185216838E02068016821F480613B
:1010E000016020680069616A0870606A401C606283
:1010F000208D401E2085608D401E60853B4600226D
:1011000041460095204601F057FC00B9D0E706E0C3
:10111000FFE72A463946204601F0CDFC18B10120F0
:1011200007B0BDE8F08F20680069616A0870606AE6
:10113000401C6062218D491E2185618D491E61859B
:1011400021684A69D24352070AD409690170606A6A
:10115000401C6062208D401E2085608D401E608591
:10116000208D00287FF468AF202084F83D0084F8AB
:101170003E6084F83C600020D2E70220D0E7000007
:10118000020010000000FFFF040001002DE9FF4FE6
:1011900083B09A46DDE9119793460446DDF8408016
:1011A000FFF7B0FC054694F83D0020287FD11923B5
:1011B000012240492046009501F0FEFB002876D12F
:1011C00094F83C00012872D0012084F83C0020688B
:1011D0000168C90703D1016841F00101016020687D
:1011E000016821F400610160212084F83D00402065
:1011F00084F83E0000262664C4F82480A4F82A90CF
:10120000608D20852C48E062CDE9007553465A4632
:101210002046049901F042FA70B930E02A46394676
:10122000204601F07BFC58B1206C042804D12068D2
:10123000016841F400710160012007B0BDE8F08F42
:10124000606A216800780861606A401C6062218DD4
:10125000491E89B22185628D521E628522685369BA
:10126000DB435B070BD469B100781061606A401CF6
:101270006062208D401E2085608D401E6085208D1F
:101280000028CBD12A463946204601F06FFB0028C2
:10129000CAD154F83D0B016841F40071016020206F
:1012A00004F81E09E67766770020C6E7FFE702200C
:1012B000C3E70000020010000000FFFFF0B587B098
:1012C000044614216846FEF7CDFF22492068884273
:1012D0003DD121480024016841F00201016000680D
:1012E000122500F0020005904FF48060CDE9000562
:1012F000032602940420CDE90360184F694638465E
:10130000FFF710FB0820CDE9000502940920CDE984
:10131000036069463846FFF705FB0F481030016847
:1013200041F4800101600068002200F48000059013
:101330001146212000F07EF8212000F06DF80022F7
:101340001146222000F076F8222000F065F807B060
:10135000F0BD000000580040303802400004024058
:101360007047704702488168027811448160704775
:10137000140000200B4810B5016841F400710160B1
:10138000016841F480610160016841F4807101608D
:10139000032000F06FF80F2000F006F800F024F8AA
:1013A000002010BD003C024070B50D4D04464FF4C6
:1013B0007A712878B1FBF0F00A490968B1FBF0F0C6
:1013C00000F00CFB48B9102C07D200222146501E19
:1013D00000F030F800206C6070BD012070BD00008E
:1013E00014000020200000200A4808B5016841F4DC
:1013F00080410160006800F4804000900548001FB3
:10140000016841F080510160006800F08050009058
:1014100008BD000044380240002809DB00F01F022C
:10142000012191404009800000F1E020C0F8001146
:1014300070470000F0B40E4B1B680C46C3F3022348
:10144000C3F10705042D00D90425191D072901D270
:10145000002300E0DB1E012606FA05F1491E2140AB
:1014600099409E40761E16403143F0BC01F0D6BE36
:101470000CED00E0064900F0070208684FF6FF0394
:10148000184040EA0220034A1043086070470000F9
:101490000CED00E00000FA052DE9F0470E460500CE
:1014A00065D0DFF81481D8F80000F7B200F007002B
:1014B000B04207D288F80070D8F8000000F00700AA
:1014C000B04254D128683D4C810712D5400703D55E
:1014D000206840F4E05020602878000703D5206899
:1014E00040F4604020602068A96820F0F0000843C4
:1014F00020602878C0072DD0304968680839012855
:1015000012D0022813D0032811D0096889070029B6
:101510002DDA216821F0030101432160FFF7F2FA7F
:10152000814641F2883A0EE009688903EFE70968CD
:101530008901ECE7FFF7E6FAA0EB0901514502D972
:101540000320BDE8F0872068696800F00C00B0EB6C
:10155000810FEFD1D8F80010404601F00701B142E9
:1015600007D90770006800F00700B04201D00120E1
:10157000E7E72878400705D52068E96820F4E050BF
:10158000084320602878000706D52068296920F4E0
:10159000604040EAC100206000F038F82168084A45
:1015A000C1F30311515CC840064908600648006851
:1015B000FFF7FAFE0020C4E7003C02400838024072
:1015C000603C000820000020180000200448054965
:1015D00000680968044AC1F38221515CC840704721
:1015E0002000002008380240703C000804480549EB
:1015F00000680968044AC1F34231515CC840704731
:101600002000002008380240703C0008154810B542
:10161000006810F00C02144813D01449042A0FD0AB
:10162000082A0ED10F4C241F2268236802F03F02C3
:101630005B0207D52068C0F38810A0FB010106E01B
:10164000084610BD2168C1F38811A1FB00010023E9
:10165000FEF7BEFD2168C1F30141491C4900B0FB02
:10166000F1F010BD083802400024F40040787D01FC
:101670002DE9F84F04006ED02078DFF84C93C007B6
:10168000A9F104054AD009F104000168C1F3810100
:10169000012908D00068C0F3810002280AD1D9F8D6
:1016A0000000400206D52868800337D5606800280E
:1016B000E1D033E06068B0F5803F10D0B0F5A02FE6
:1016C000286810D020F480302860286820F480201A
:1016D00028606068A8B1FFF715FA06460DE0286893
:1016E00040F48030F4E740F480202860F7E700BF42
:1016F000FFF708FA801B642873D828688003F7D5A1
:101700000CE0FFF7FFF9064605E000BFFFF7FAF926
:10171000801B6428F0D828688003F7D42078DFF88D
:10172000AC8280074FF0000A3ED5A748001D016833
:1017300011F00C0F08D00068C0F3810002280BD113
:10174000D9F80000400207D42868800716D5E06861
:10175000012800D112E033E1E068B8B10120C8F8F7
:101760000000FFF7CFF9064605E000BFFFF7CAF912
:10177000801B0228C0D828688007F7D5286821690F
:1017800020F0F80040EAC10028600DE0C8F800A091
:10179000FFF7B8F9064604E0FFF7B4F9801B02280A
:1017A0001FD828688007F7D42078000722D5864FF5
:1017B00087486169703771B101210160FFF7A2F9B3
:1017C000064604E0FFF79EF9801B022809D8386816
:1017D0008007F7D50EE0C0F800A0FFF793F90646A2
:1017E00005E082E0FFF78EF9801B02287DD838687B
:1017F0008007F7D42078400768D5DFF8CCB1002700
:101800000BF13C0BDBF80000C0000BD4DBF8001040
:1018100041F08051CBF80010DBF80000012700F008
:10182000805000906B4E3068C00510D4306840F492
:1018300080703060FFF766F9009005E0FFF762F90D
:101840000099401A022850D83068C005F6D55E4E7F
:10185000A0686C3601280FD00528306810D020F021
:1018600001003060306820F004003060A068B8B13A
:10187000FFF748F900900FE0306840F00100F4E70E
:1018800040F004003060F7E7FFF73CF90099411A97
:1018900041F28830814266D830688007F4D50EE086
:1018A000FFF730F9009007E0FFF72CF90099411A93
:1018B00041F28830814256D830688007F4D42FB185
:1018C000DBF8001021F08051CBF80010A069C8B3FC
:1018D0003D49091D0968C1F3810102294AD0022846
:1018E000504607D0C8F8600000E03CE0FFF70AF976
:1018F00004463BE04746C8F86000FFF703F9064698
:1019000005E000BFFFF7FEF8801B02282BD82868EF
:101910008001F7D4D4E907010843A16A2E4A490897
:1019200002EB0141626A41EA8211084394F82C10EB
:1019300040EA0161C9F8001001203866FFF7E2F8BB
:10194000044606E03EE000BFFFF7DCF8001B02287B
:1019500009D828688001F7D534E000BFFFF7D2F836
:10196000001B022802D90320BDE8F88F28688001F7
:10197000F4D427E00128F7D0D9F80000E26900F498
:10198000800191421CD1226A00F03F01914217D19F
:1019900047F6C071626A0140B1EB821F10D1A26AA2
:1019A0004FF0FF3300F4403103EB5202B1EB024F32
:1019B00006D194F82C1000F07060B0EB016F01D0EC
:1019C0000120D1E70020CFE7043802400000474261
:1019D000800E4742007000400000FFFF10B5401E1F
:1019E000B0F1807F01D3012010BD4FF0E024606191
:1019F0000F21601701F012FC0020A0610720206178
:101A0000002010BD70477047F8B5016804460868AB
:101A1000CA684B6910F00F0F4FF0000559D003F062
:101A2000010602F49077374365D0C10705D0D10590
:101A300003D5216C41F001012164410705D5D90787
:101A400003D0216C41F002012164810705D5D9073B
:101A500003D0216C41F004012164010707D502F095
:101A60002001314303D0216C41F008012164216C35
:101A700000293AD0800604D5900602D5204601F010
:101A800092FA20684069216CC0F38010090700D4E5
:101A900060B3204601F060FA20684069400621D515
:101AA0002068143050E8001F21F0400140E8001287
:101AB000002AF5D1A06BA8B16C490165A06BFEF7B7
:101AC0000AFF002811D0A06B016D01B0BDE8F04005
:101AD000084783060FD593060DD52046BDE8F8408C
:101AE00001F061BA2046FFF78EFFF8BD2046FFF7F0
:101AF0008AFF2564F8BD266B2023012E79D1C60606
:101B000077D5D60675D508684868009048694006BC
:101B100040D5A16B086840680004000CEAD0A28D93
:101B20008242E7D9E085C869B0F5807F2DD0206872
:101B30000C3050E8001F21F4807140E80012002AA8
:101B4000F5D12068143050E8001F21F0010140E871
:101B50000012002AF5D12068143050E8001F21F04F
:101B6000400140E80012002AF5D184F83E30256398
:101B700020680C3050E8001F21F0100140E80012EE
:101B8000002AF5D1A06BFEF75DFEA08DE18D401A15
:101B900081B229E0A08DE18D401A81B2E08D00284C
:101BA000A8D00029A6D020680C3050E8002F22F4DD
:101BB000907240E80026002EF5D12068143050E8DD
:101BC000002F22F0010240E80026002EF5D184F813
:101BD0003E30256320680C3050E8002F22F01002C0
:101BE00040E80023002BF5D12046FFF70BFFF8BD9E
:101BF000FFE705062BD5150629D594F83D002128C9
:101C0000F5D1A068B0F5805F01D12069B0B1206A3C
:101C1000411C2162216800784860E08C401E00046D
:101C2000000CE084E3D12068C16821F08001C1602C
:101C30002068C16841F04001C160D8E7206A00888F
:101C4000C0F308004860206A801C2062E5E7400677
:101C5000CDD55006CBD5CA68204622F04002CA60D6
:101C600084F83D3000F0CFF8C1E70000492F0008AC
:101C700070B5040004D094F83D00002510B106E0D2
:101C8000012070BD84F83C50204600F023F8242049
:101C900084F83D002068C16821F40051C1602046ED
:101CA00001F0E2F92068016921F4904101612068A6
:101CB000416921F02A0141612068C16841F4005165
:101CC000C1602564202084F83D0084F83E00002097
:101CD00070BD000010B586B0044614216846FEF7BA
:101CE000C1FA18492068884229D1174800210268A2
:101CF00042F010020260006800F0100005901248E7
:101D00001438026842F001020260006800F001002D
:101D100005904FF4C06000900220CDE9010103203E
:101D200003900720049069460848FEF7FBFD002257
:101D300011462520FFF77EFB2520FFF76DFB06B03F
:101D400010BD000000100140443802400000024075
:101D5000704700002DE9F843044690F83D001F4607
:101D600016460D4620284CD1C5B1BEB194F83C00B2
:101D7000012846D0012084F83C004FF00008C4F848
:101D80004080212084F83D00FEF7BCFEA6848146F9
:101D9000E684A068B0F5805F03D004E00120BDE8D0
:101DA000F883206928B12E465FF0000584F83C8056
:101DB0000EE00026FAE78021204601F0DBF9A0B909
:101DC000AEB116F8010B21684860E08C401EE0843B
:101DD000E08C4B464FF0000200970028EBD14FF00B
:101DE0004001204601F0C6F930B10320D7E735F8AD
:101DF000020BC0F30800E6E7202084F83D00002035
:101E0000CDE70220CBE77047FEE700000148FEF770
:101E100081BE0000280000200148FEF7D8BE000067
:101E20002800002038B5806B002190F83D202B4B16
:101E300046F2A8141B68B3FBF4F3C3EBC30303EB34
:101E4000830300933BB15B1E009303681B689B05F3
:101E500005D5009BF6E7036C43F020030364436B56
:101E600003B1D963836B03B1D96303681C6824F49D
:101E700080641C604185436B03B11965836B03B1BA
:101E8000196503681C6824F001041C6090F83D404B
:101E90002023602C0BD0282434EA02020FD080F8D3
:101EA0003D3080F83E1000BFFEF7A9FF38BD80F836
:101EB0003D3080F83E100164FEF72AFE38BD02680E
:101EC000136843F0010313600268136843F48063EE
:101ED0001360016380F83D40E6E700002000002029
:101EE00070B5044690F83D0094F83E10102901D0DA
:101EF000402906D1222804D121680A6822F4006210
:101F00000A60282131EA00024FF000054FF0200658
:101F100026D021684968090505D4602803D084F8D3
:101F20003D6084F83E50256320684168090537D537
:101F3000416821F400614160606B90F835203C49B4
:101F4000012A11D00165606BFEF7C5FC38B320682B
:101F5000016821F00101016084F83D60606B1CE0C4
:101F6000256384F83D10DFE7A06B0165A06BFEF7E9
:101F7000B2FCA0B120684169C943490605D4006993
:101F8000616A0870606A401C60622068016821F024
:101F90000101016084F83D60A06B016D884710E08D
:101FA00094F83D10602910D04169C943490605D411
:101FB0000069616A0870606A401C60622046FEF732
:101FC0001EFF206CC1071CD115E084F83D6025641C
:101FD0004169C943490605D40069616A0870606AAD
:101FE000401C60622068016821F001010160204608
:101FF000FEF78EFDE5E7810703D4410701D4000712
:1020000004D52068416821F4E061416094F83D0006
:10201000216C49070BD5282809D10648E0622563C1
:1020200084F83D6084F83E502046FEF7ADFF70BD59
:10203000251E00080000FFFF01684A69D2435205CF
:102040000FD46FF480624A61002140F8301F2022D3
:1020500042738173026942F004020261017301203C
:1020600070470020704710B5C26A438D0168042B89
:1020700006D0438D032B08D0438D022B1DD012E0D8
:102080004A6822F480624A600CE04B6823F4806363
:102090004B60042A06D0022A04D001680A6822F4A0
:1020A00080620A6001680969426A1170416A491CCC
:1020B0004162418D491E418510BD012A30D0102A50
:1020C0002ED0042A30D0022A2ED00A6842F40072A0
:1020D0000A6001680969426A1170416A491C4162DB
:1020E000428D521E4285026812690A70416A491C7B
:1020F0004162418D491E418501684A6822F440725F
:102100004A60202180F83D1090F83E200021402AAE
:1021100080F83E100CD012210163FEF736FF10BD8F
:102120000A6822F48062D3E70A6842F48062CFE74B
:102130000163FEF72CFF10BD38B590F83D10222941
:1021400014D1418D032912D901680969426A1170BD
:10215000416A491C4162418D491E4185418D0329D7
:1021600004D10068416821F48061416038BDC26AD1
:10217000022AFBD0012901D00029F7D1274946F2D4
:10218000A81300220968B1FBF3F101EB8101009172
:1021900001682023009C641E009422D00C68A405D2
:1021A000F8D40C6824F480640C6001684C6824F452
:1021B000E0644C6001680969446A2170416A491C05
:1021C0004162418D491E418580F83D3090F83E10B6
:1021D00080F83E2040291DD012210163FEF7D5FE74
:1021E00038BD046C44F0200404644C6824F4E064BA
:1021F0004C6001680969446A2170416A491C416266
:10220000418D491E418580F83D3080F83E20FEF723
:10221000F6FD38BD0263FEF7BAFE38BD200000208F
:1022200010B5C26A90F83D1021290BD1418D51B1F2
:10223000416A026809781161416A491C4162418D15
:10224000491E418510BD20230021082A13D0202AD1
:1022500011D012F5803F0ED00268546824F4E06477
:1022600054601122026380F83E1080F83D3000BFB8
:10227000FEF78CFE10BD0268546824F4E0645460DC
:102280000268146844F400741460016380F83D30FF
:1022900090F83E2080F83E10402AE9D1FEF778FE03
:1022A00010BD000010B590F83D1090F83E30C26AA5
:1022B000048DB4B1212903D0402B11D122290FD193
:1022C000418DE1B390F83E10402942D0416A026846
:1022D00009781161416A491C4162418D491E41855D
:1022E00010BD2129E8D120230021082A13D0202A5B
:1022F00011D012F5803F0ED00268546824F4E064D7
:1023000054601122026380F83E1080F83D3000BF17
:10231000FEF73CFE10BD0268546824F4E06454608B
:102320000268146844F400741460016380F83D305E
:1023300090F83E2080F83E10402AE9D100E002E00B
:10234000FEF726FE10BD0068416821F480614160FF
:1023500010BDBDE8104000F0D3B8000078B590F88B
:102360003E50C26A036B90F83D6000240168222E43
:102370007AD1066D0EB9402D76D0056D1DB905696F
:10238000B5F5404F09D0458D05B3468D384D012E2A
:102390000ED0438D022B3AD05DE04A698A690092E3
:1023A0000A6842F480720A60016D491C016578BDBB
:1023B000AA4213D10A6822F480620A6001684A685E
:1023C000120503D50A6822F4806216E04A698A6918
:1023D00000920A6842F400720A6039E0082A10D0BC
:1023E000202A0ED0122B0AD0042A03D0022A01D0B0
:1023F000102AE7D10A6842F480620A6024E0012AC8
:10240000E0D00A6822F480620A600168DEE7042AEC
:1024100021D0022A1FD0102A1DD00B6823F480631C
:102420000B6001680B6843F400630B6001684B6844
:102430001B0509D5AA4212D0012A10D0082A0ED0B5
:10244000102A0CD0202A0AD001684A6989690091B3
:10245000046578BD08E00B6843F48063E5E74A68EB
:1024600042F480524A60EFE7486988690090F0E7DB
:102470000000FFFF90F83E10402910D00169B1F52F
:10248000804F19D0016DA9B3016D012910D1416CA4
:102490005FF0F10201F4407142EAD11106E0016DF2
:1024A0000029416C05D0C9B241F001010068016109
:1024B000704701F0FE01F9E790F83D102129416CC9
:1024C00009D0C9B241F0010102681161416B29B123
:1024D000C96B49B902E001F0FE01F5E7816B002903
:1024E000E6D0C96B0029E3D00068416841F400617F
:1024F00041607047FFE7416CF02201F44071CBE787
:1025000010B590F83D10026D22B3026D012A2FD054
:10251000026D022A1DD122292FD0428D0AB1212914
:1025200033D0428D002A14D1212912D101684A6882
:1025300022F4E0624A6001680A6842F400720A60AC
:1025400000210163202280F83D2080F83E10FEF734
:102550001FFD10BDC16C0129816C02D0C1F30721A0
:1025600008E00268C9B21161016D891C016510BDE6
:10257000816CC9B20268116104E001680A6842F422
:1025800080720A60016D491CF0E7416A02680978AF
:102590001161416A491C4162418D491E418510BD4E
:1025A0002DE9F84F0446006889460B9D016898465E
:1025B000174641F4806101602068016841F4807130
:1025C000016000954FF0011B0022594620460A9BEE
:1025D00000F0F2F94FF4007A40B120680068C005BD
:1025E00001D5C4F840A00320BDE8F88F216809F0A8
:1025F000FE0008612B46284920460A9A00F010FA8E
:10260000F0BB20684169806900902A4620460A99FB
:1026100000F084FA40B1206C04283AD120680168A7
:1026200041F40071016034E0FEB2B8F1010F09D04D
:102630002168380A08612A4620460A9900F06EFA95
:102640000028E8D1206806612A4620460A9900F051
:1026500065FA0028DFD12068016841F480710160CB
:1026600000950022594620460A9B00F0A5F9002853
:10267000B3D1216809F0FF0040F00100086100E0DB
:1026800007E02B46044920460A9A00F0C9F90028C1
:10269000AAD00120A8E70000020001002DE9F843BC
:1026A000044600680D46DDE908970168984616461D
:1026B00041F4807101604B4600224FF00111204629
:1026C000009700F079F948B120680068C00502D58C
:1026D0004FF4007020640320BDE8F883216805F002
:1026E000FE0008613B464A461549204600F098F92D
:1026F00088B920684169806900903A464946204679
:1027000000F00CFA48B1206C042804D1206801685C
:1027100041F4007101600120DEE7F5B2B8F1010F6C
:1027200009D02168300A08613A464946204600F03F
:10273000F5F90028E7D1206805610020CCE700000A
:102740000200010038B50C4690F83D2000212825F4
:10275000954302680B4605D051699169009180F854
:102760003C3038BD556825F480655560E243540718
:1027700000D50121120601D5828900E0028B80F884
:102780003C3092B2FEF7C5F938BD00002DE9F041AA
:1027900090F83D40C26A002320261C4F01686FF468
:1027A0008065082A01D0202A01D1282C04D0212CB0
:1027B00016D04D61BDE8F081C7624A6822F4E0623C
:1027C0004A6001684D6101680A6822F480620A600B
:1027D000036380F83D6080F83E30FEF7D5FBE9E703
:1027E000C7622122026380F83D6080F83E304A686B
:1027F00022F4E0624A6001684D6101680A6822F4CF
:1028000080620A60FEF7ADFDD4E700000000FFFF24
:10281000F8B590F83D6004460068416821F4E06135
:1028200041602068002541690091016841F0010183
:1028300001602068016821F48061016020684168BE
:10284000090520D5474F222E48D02A2E46D0616B4D
:10285000096849686185618D19B1216C41F00401F5
:102860002164416821F400614160606BFEF745F826
:10287000012808D0606B0765606BFEF72CF810B17B
:10288000606B016D8847608D08B320684169C9435A
:10289000490708D40069616A0870606A401C606278
:1028A000608D401E608520684169C943490608D48F
:1028B0000069616A0870606A401C6062608D401E39
:1028C0006085608D18B1206C40F004002064206C9D
:1028D00000B32046BDE8F840FFF702BBA16B0968D2
:1028E00049686185618D19B1216C41F00401216451
:1028F000416821F400614160A06BFDF7FEFF0128F3
:10290000C1D0A06B0765A06BFDF7E5FF0028BAD02A
:10291000A06BB6E72A2E06D12563282084F83D0057
:102920002046FEF71DFD94F83D10202028290DD0EB
:10293000216B222901D0222E07D1256384F83D0086
:1029400084F83E502046FEF70BFDF8BD0649E162D3
:10295000256384F83D0084F83E502046FEF714FBC2
:10296000F8BD0000251E00080000FFFF70B51646E8
:102970000D4604460DE02046FFF75EFB08B101203E
:1029800070BD681C05D0FEF7BDF8801BA84207D8B3
:1029900035B120684069C0434007ECD4002070BDC9
:1029A000002044F8300F20216173A073216941F0A9
:1029B000200121612073E2E72DE9F0471E46904691
:1029C0000D460446C1F30747DDF8209008E0701C6F
:1029D00006D0FEF797F8A0EB0900B0420FD876B109
:1029E0002068012F18D0806925EA00000004000C3F
:1029F00014D000214145EAD00020BDE8F087002036
:102A000044F8300F20216173A073216941F0200147
:102A1000216120730120F0E74069E5E70121E9E742
:102A20002DE9F0479A4691460E46044600254FF0A0
:102A30002008C1F3074725E020684069C0434005EE
:102A400014D42068016841F40071016021686FF4BA
:102A500080604861256384F83D8084F83E50206C96
:102A600040F00400206484F83C501FE0B9F1FF3FBF
:102A700008D0FEF747F8A0EB0A0149450CD8B9F198
:102A8000000F09D02068012F13D0806926EA0000CA
:102A90000004000C0BD0CFE744F8305F84F80D80C1
:102AA000A573206940F02000206125730120BDE856
:102AB000F0874069EAE72DE9F041002590460E468F
:102AC0000446202717E04069C043C0060CD454F8E0
:102AD000301B6FF01000486144F810596777A577F4
:102AE000206A2062257717E0FEF70CF8A0EB0800BB
:102AF000B04208D83EB120684169C9434906E2D4D2
:102B00000020BDE8F08144F8305F6773A573206949
:102B100040F02000206125730120F2E770B51646D1
:102B20000D4604460DE02046FFF786FA08B1012065
:102B300070BD681C05D0FDF7E5FF801BA84207D8D3
:102B400035B120684069C0430006ECD4002070BD58
:102B5000002044F8300F20216173A073216941F0F7
:102B6000200121612073E2E770B54FF47A722DEDF8
:102B7000028B86B0062103A88DE8070001233B22C3
:102B8000D0211B48FEF706FABDF80C00194940BADF
:102B90000880BDF80E2055BA4D80BDF8102054BAFB
:102BA0008C80FDF7F2FC9FED148B53EC182BFDF796
:102BB0000BFCFDF70AFD0E4E543630602846FDF73B
:102BC000E4FC53EC182BFDF7FFFBFDF7FEFC7060F7
:102BD0002046FDF7DAFC53EC182BFDF7F5FBFDF76B
:102BE000F4FCB06006B03046BDEC028B70BD000056
:102BF000C000002000000020000000000000103F86
:102C000070B54FF47A722DED028B86B0062103A8C1
:102C10008DE8070001234322D0211B48FEF7BAF9B3
:102C2000BDF80C00194940BAC880BDF80E2055BA4D
:102C30000D81BDF8102054BA4C81FDF7A6FC9FED24
:102C4000148B53EC182BFDF731FCFDF7BEFC0E4E38
:102C5000603630602846FDF798FC53EC182BFDF7E2
:102C600025FCFDF7B2FC70602046FDF78EFC53ECAE
:102C7000182BFDF71BFCFDF7A8FCB06006B0304632
:102C8000BDEC028B70BD0000C000002000000020E1
:102C9000000000000060604010B586B04FF47A720A
:102CA000062103A88DE8070001234122D0210F4807
:102CB000FEF770F9BDF80C000D4C40BAA081FDF78D
:102CC00064FC9FED0C1B53EC112BFDF7EFFB9FED0C
:102CD0000B1B53EC112BFDF7D0FAFDF776FC00EE41
:102CE000100A84ED040A06B010BD0000C0000020E8
:102CF000000000200000000000407540A4703D0A64
:102D0000D74342400FB4F0B54FF47A7585B02846EA
:102D1000FDF7F6FD2A220AA93148FDF78AFABDF827
:102D200052002F4C60851598E062169820630922A6
:102D300017A904F13400FDF77CFA9DF8650084F8CA
:102D40003D009DF8660084F83E001A9820641B98A8
:102D500060641C98A0641D98E0641E98206501249E
:102D600004A88DE8310023467522D0211C48FEF7C7
:102D700011F99DF8100068282ED1002703AE8DF8B8
:102D80000C70009601236B22D0211548CDE9014536
:102D9000FEF7FCF917208DF80C000096012319228C
:102DA000D0210F48CDE90145FEF7F0F98DF80C7000
:102DB000009601231C22D0210948CDE90145FEF7E8
:102DC000E5F98DF80C70009601231B22D0210448F0
:102DD000CDE90145FEF7DAF905B0F0BC5DF814FB6A
:102DE000C00000200D4808B5016841F08001016075
:102DF000016801F080010091016841F00201016069
:102E0000016801F002010091016841F001010160D7
:102E1000006800F00100009008BD0000303802405A
:102E20000D4810B50B4901600C49416000214FF479
:102E300080428160C0E9031241618161C161016228
:102E4000FDF7DEFF002803D0BDE81040FDF7F8BC19
:102E500010BD00000058004028000020801A060025
:102E60000C4810B50A4901604FF4E131416000217E
:102E700081600C22C160C0E904128161C161FEF76A
:102E8000F7FE002803D0BDE81040FDF7D9BC10BD07
:102E9000001001407C000020FEE7FEE7704770470D
:102EA000FEF760BA30B593B030216846FDF7DAF925
:102EB00014210CA8FDF7D6F91D480024016841F043
:102EC00080510160006800F080501190194801683D
:102ED00021F4404141F4004101600068022500F402
:102EE0004040119001200390102004900095069519
:102EF0000820CDE907405420CDE9090504200B90B6
:102F00006846FEF7B5FB08B172B6FEE70F20CDE9C3
:102F10000C054FF48050CDE90E4002210CA810940E
:102F2000FEF7BAFA002801D072B6FEE713B030BD42
:102F300040380240007000400248016841F47001CE
:102F40000160704788ED00E010B5806B0021C185FD
:102F5000C184FEF758FD10BD01680C3151E8002F07
:102F600022F4907241E80023002BF5D1016814315E
:102F700051E8002F22F0010241E80023002BF5D197
:102F8000016B012909D101680C3151E8002F22F0B1
:102F9000100241E80023002BF5D1202180F83E10DB
:102FA00000210163704708B590F83E10222901D036
:102FB000022008BD82684FF480539A4201D1016912
:102FC00021B1816A9A421BD04AB10AE00268816A43
:102FD0005268C2F308020A80816A891C08E002690B
:102FE00072B10268526802F07F020A70816A491C5D
:102FF0008162C18D491E0904090CC18503D019E005
:1030000002685268F1E70168CA6822F02002CA60CB
:103010000168CA6822F48072CA6001684A6922F0B5
:1030200001024A61202180F83E10016B012903D082
:10303000FEF78EFE002008BD0021016301680C31FF
:1030400051E8002F22F0100241E80023002BF5D1B7
:1030500001680A68D20602D50A6849680091818D24
:10306000FEF7D0FCE6E7000070B504460068016991
:10307000E26821F44051114301612169A068E269CD
:1030800008436169114308432168CA6849F20C6327
:103090009A430243CA6020684169A26921F44071E1
:1030A0001143416131492068884202D03049884249
:1030B00002D1FEF79BFA01E0FEF788FAE2690023ED
:1030C000192164253226B2F5004F626828D0A0FB92
:1030D0000101930F9200FDF77BF80146B0FBF5F07C
:1030E0006FF01802504301EB800006EB0010B0FBBC
:1030F000F5F000F0F002B1FBF5F002EB0012B1FBCD
:10310000F5F06FF01803584301EB800006EB001058
:10311000B0FBF5F000F00F0021681044886070BD2E
:10312000A0FB010192185B41FDF752F80146B0FB8C
:10313000F5F00201B1FBF5F06FF01803584301EB15
:10314000800006EBC000B0FBF5F000F0F80002EBE9
:103150004002B1FBF5F0584301EB800006EBC000E4
:10316000B0FBF5F000F00700D6E7000000100140CA
:10317000001401402DE9F041984617460E460446DA
:10318000069D27E0681C25D02DB1FDF7BBFCA0EB08
:103190000800A8421ED920680C3050E8001F21F416
:1031A000D07140E80012002AF5D12068143050E8B0
:1031B000001F21F0010140E80012002AF5D1202073
:1031C00084F83D0084F83E00002084F83C00032091
:1031D000BDE8F0812068006836EA000004D00020D5
:1031E000B842CFD00020F3E70120F9E70148FEF70D
:1031F0000BBC00007C000020FEE700000FB4054B74
:1032000010B503A9044A029800F0EAF810BC5DF872
:1032100014FB0000E93A0008240000200907090E09
:10322000002804DB00F1E02080F80014704700F073
:103230000F0000F1E02080F8141D704702E008C87C
:10324000121F08C1002AFAD170477047002001E020
:1032500001C1121F002AFBD1704700002DE9FF5F5A
:1032600082B00021DDE90430020DDDF840B00343F7
:1032700018D044F61050A2F2FF32424315141198B0
:1032800001281FD0A5EB0B00401C5FEA000A4FF09D
:1032900000064E4FDFF83891B046504615D5CAF1BA
:1032A000000413E0119801244AA3012801D16FEA18
:1032B0000B010298119AC0E90031C0E9024206B040
:1032C000BDE8F09FCBF10000DFE704460021404A53
:1032D000491842EB0450CDE9001012E0E00707D096
:1032E00032463B4640464946FDF76EF880468946E1
:1032F00032463B4610461946FDF766F806460F462D
:103300006410002CEAD1DDE90401DDE90023BAF103
:10331000000F06DAFDF758F842464B46FDF754F821
:1033200005E0FDF7C3F842464B46FDF7BFF80446FB
:103330000E460022284BFDF757FA03D84FF0FF3016
:10334000014607E00022254B20463146FCF795FF59
:10335000FDF732FA102409E0002C0ADB0A220023D0
:10336000FCF736FF039B30321A55641E50EA010207
:10337000F2D1641C039AC4F111031444119A012A76
:1033800003D0012208430DD10AE0084304D00020F5
:103390004FF0110B119072E7A3EB0B056D1E0DE0C2
:1033A0005B4504DD4FF0000205F1010504E003DA9E
:1033B0004FF00002A5F10105002AECD00298119906
:1033C000C0E90231C0E9004579E70000000014407F
:1033D0000000F03F300000000000F0430000E03F3C
:1033E0002DE9FF4F95B09A46884606460025EEE146
:1033F000252877D100242746F94A0121039400E0CB
:10340000044316F8013F203B01FA03F01042F7D1C4
:1034100030782A2811D06FF02F033078A0F13002D5
:10342000092A16D8039A44F0020402EB820203EB45
:1034300042021044761C0390EFE758F8042B0392E5
:10344000002A03DA504244F40054039044F002048A
:10345000761C30782E2816D116F8010F44F004049B
:103460002A280DD06FF02F023078A0F13003092BFD
:1034700009D807EB870302EB4303C718761CF3E771
:1034800058F8047B761C30786C280FD006DC4C286A
:1034900017D068280DD06A2814D104E0742810D001
:1034A0007A280FD10DE044F400140AE044F48014AB
:1034B00001E044F440147278824202D104F5801491
:1034C000761C761C307866280BD013DC582877D011
:1034D00009DC002875D04528F6D04628F4D04728C6
:1034E0001AD193E118E0632835D0642879D0652893
:1034F00012D18BE1702873D008DC6728F1D06928DD
:103500006FD06E280DD06F2806D1ACE073282CD078
:10351000752874D0782853D05246179990476D1C5F
:1035200054E1C4F30250022809D003280DD0D8F882
:10353000001004280DD00D6008F1040846E1D8F809
:103540000010EA17C1E90052F6E7D8F800100D8024
:10355000F2E70D70F0E718F8041B8DF8001000205A
:103560008DF80100EB46012003E058F804BB4FF052
:10357000FF3061074FF0000102D40DE009F10101B5
:103580008946B9420FDA8145F8DB1BF8091000299A
:10359000F4D108E009F1010189468142FADB1BF808
:1035A00009100029F6D103985346A0EB09072146DC
:1035B0003846179A00F080FA284400EB090507E026
:1035C00044E008E10DE01BF8010B524617999047C3
:1035D000B9F10109F7D2534621463846179AF2E06D
:1035E00039E00A21C4F302524FF0000B0091022A85
:1035F00006D058F8040BC117032A09D00AE023E0CB
:1036000008F1070020F00702F2E80201904605E009
:1036100000B2C117042A01D140B2C117002906DA4D
:103620000A460021404261EB02012D2202E0220500
:1036300004D52B228DF80420012203E0E20701D0FB
:103640002022F7E7914657E00A2100E010214FF0D1
:10365000000B00910BE010214FF0000B44F004042C
:103660000827009103E008204FF0000B0090C4F3FE
:103670000252022A05D058F8040B0021032A08D070
:1036800008E008F1070020F00702F2E80201904686
:1036900003E080B2042A00D1C0B24FF00009220733
:1036A0002AD53278702A07D0DDF800C08CF0100CD3
:1036B0005CEA0B0C05D00EE040228DF804200122BC
:1036C00008E050EA010306D030238DF804308DF86D
:1036D000052002229146009B83F0080353EA0B0366
:1036E0000AD150EA010201D1620705D530228DF8D6
:1036F00004204FF001097F1E3278582A04D039A2E5
:103700000C920CAA02920BE03BA2F9E75B46009AEE
:10371000FCF75EFD0C9B9B5C029A521E029213709A
:1037200050EA0102F2D1029804A9081A00F1200B14
:10373000600702D524F4803400E001275F4502DDF4
:10374000A7EB0B0000E0002000EB0B0100900398BA
:103750004944401A0390E00306D453462146179A81
:10376000039800F0A9F90544002706E001A8524695
:10377000C05D179990476D1C7F1C4F45F6DBE00339
:103780000CD553462146179A039800F095F9054445
:1037900004E030205246179990476D1C0099481E4E
:1037A00000900029F5DC08E0029802995246007862
:1037B000491C0291179990476D1CBBF10001ABF1B8
:1037C000010BF1DC5BE100F065F90544761C307813
:1037D00000287FF40DAE19B02846BDE8F08F000038
:1037E00009280100303132333435363738396162D7
:1037F000636465660000000030313233343536379B
:10380000383941424344454600000000600700D477
:10381000062708F1070020F00700F0E802238046A1
:1038200003F0004C5FEA0C0001D097A009E02005EE
:1038300001D596A005E0E00701D095A001E0AFF228
:103840004C001390307823F0004365280CD006DC40
:10385000452809D046281DD047287FD13BE066285F
:1038600018D067287AD136E00021112F01DB112012
:1038700000E0781CCDE9000104A90CA8FFF7EEFCDC
:10388000DDE90D010C9A4FF0000B07F101091092D0
:1038900000914EE04FF000400097CDE9011004A9DF
:1038A0000CA8FFF7DBFCDDE90D020C9B0F994FF034
:1038B000000B91461093009211B9791C00EB01099D
:1038C000B7EB090003D4C0F1FF3B07F10109A9EBF5
:1038D0000700019042E0012F00DA01270021112F9B
:1038E00001DD112000E03846CDE9000104A90CA853
:1038F000FFF7B4FCDDE90D010C9A00914FF0000BCD
:10390000B946109221070FD4009A4A4503DA91462E
:1039100001E0A9F10109B9F1010F05DD109AA9F142
:103920000101515C3029F4D0B84202DA10F1040FE1
:1039300003DA0121CDE9011010E0002803DC834403
:10394000A9EB000102E0411C494500DD8946A0EBDE
:103950000B00401C01904FF000400290200705D45E
:103960000198484502DB4FF0FF30019000208DF8B0
:103970004B0002980DF14B07B0F1004F25D002200B
:103980000C902B200D90029800280CDA40420290F7
:103990002D200D9007E00A210298FCF732FE30310D
:1039A000029007F8011D0C99481E0C900029F2DCCA
:1039B00002980028EFD1791E0D980870307800F039
:1039C000200040F0450007F8020D11A8C01BC01DE3
:1039D00002901398007800B1012000EB09010198D2
:1039E00001EBE071029801440398401A401E0390D5
:1039F000E00306D453462146179A039800F05CF87A
:103A000005441398007818B15246179990476D1CD9
:103A1000E00323D553462146179A039800F04CF84B
:103A200005441BE0BBF1000F07DB0098584504DD9F
:103A30001098179910F80B0001E0179930205246A2
:103A4000904701980BF1010B401E05F10105019013
:103A500004D12E205246179990476D1CB9F10001F0
:103A6000A9F10109DEDC05E017F8010B52461799B0
:103A700090476D1C0299481E02900029F4DC5346C1
:103A80002146179A03989EE62D0000002B000000A7
:103A9000200000002DE9F041044600251E4617468F
:103AA000880404D405E039462020B0476D1C641E0C
:103AB000F9D52846BDE8F0812DE9F04104460025FE
:103AC0001E469046C80301D5302700E02027880411
:103AD00004D505E041463846B0476D1C641EF9D553
:103AE0002846BDE8F081000013B54FF6FF730122B0
:103AF00069460248FEF72EF900981CBD7C000020A4
:103B0000A6B0FDF737FCFFF7CDF9FFF76BF9FFF72C
:103B1000A7F9FFF785F92A22424911A8FCF789FB8A
:103B2000404C608DADF86E00E06A1C90206B1D90DB
:103B3000092204F134011EA8FCF77BFB94F83D0038
:103B40008DF8810094F83E008DF88200206C219061
:103B5000606C2290A06C2390E06C2490206D2590E6
:103B6000442215A96846FCF764FB0DF1440C9CE85F
:103B70000F00FFF7C7F84FF47A7B00BFFEF7F4FFA2
:103B80008046FFF73DF88146FFF786F810EE10AA51
:103B9000D8F80800FCF706FD06460F46D8F80400E2
:103BA000FCF700FD04460D46D8F80000FCF7FAFCCF
:103BB0008DE8F00041EC100B1BA053EC102BFFF72D
:103BC0001DFB1EA0FFF71AFBD9F80800FCF7EAFC62
:103BD00006460F46D9F80400FCF7E4FC04460D46FF
:103BE000D9F80000FCF7DEFC8DE8F00041EC100B8A
:103BF00013A053EC102BFFF701FB10A0FFF7FEFA08
:103C00005046FCF7CFFC41EC100B12A053EC102BEC
:103C1000FFF7F4FA09A0FFF7F1FA5846FCF770FE37
:103C2000ACE7000028000020416363656C3A202562
:103C3000662025662025660A000000000A000000B4
:103C40004779706F203A2025662025662025660A70
:103C50000000000074656D70203A2025660A00009F
:103C6000000000000000000001020304060708092C
:103C70000000000001020304983C0008000000203E
:103C8000280000003C320008C03C0008280000204A
:103C9000080500004C320008000000000000000091
:103CA0000000000000000000000000000100000013
:103CB00010000000000000000024F40000000000DC
:040000050800019559
:00000001FF
